:020000040800F2
:1000000038080020816B0008096B00080B6B0008A2
:100010000D6B00080F6B0008116B0008000000005A
:10002000000000000000000000000000136B00084A
:10003000156B000800000000176B0008196B000822
:10004000AD6B0008B16B0008B56B0008B96B000818
:10005000BD6B0008C16B0008C56B0008C96B0008C8
:10006000CD6B0008D16B0008D56B0008D96B000878
:10007000DD6B0008E16B0008E56B0008E96B000828
:10008000ED6B0008F16B0008F56B0008F96B0008D8
:10009000FD6B0008016C0008056C0008096C000885
:1000A0000D6C0008116C0008156C0008196C000834
:1000B0001D6C0008216C0008256C0008296C0008E4
:1000C0002D6C0008316C0008356C0008396C000894
:1000D0003D6C0008416C00081D6B0008456C000871
:1000E000496C00084D6C0008516C00082DE9F14F77
:1000F000B0B0924604910DF142013A9A2B91994683
:100100004A7000200AE01AF8011B0498309A9047C0
:100110000028049000F0B6860D98401C0D909AF8C7
:10012000000050B12528EED100210022079108924D
:1001300009910A920B910C9204E00D9800F0A4BE74
:1001400041F001011AF8010F2028F9D023280CD022
:100150002B2804D02D2805D0302809D00BE041F001
:100160000201EFE741F00401ECE741F00801E9E7A3
:1001700041F01001E6E72A280FD1D9F8002052F803
:10018000040BC9F8002000280F9003D540420F90BF
:1001900041F004010AF1010A14E00F92DFF8283857
:1001A0000AE00F98984205DA00EB800402EB440263
:1001B000303A0F920AF1010A9AF80020A2F13000B9
:1001C0000A28EED39AF800002E2803D04FF0FF3211
:1001D0000E9229E01AF8010F2A2809D1D9F8000057
:1001E00050F8042BC9F800000E920AF1010A1BE036
:1001F0002D280CBF0AF1010A002000220E92DFF820
:10020000C8470BE040B90E9AA24205DA02EB82051C
:1002100003EB4503303B0E930AF1010A9AF80030D4
:10022000A3F130020A2AEDD3ADF84010DFF89C07A5
:10023000784400F5F3609AF8001000F057FF08B119
:100240001AF8010B8DF842009DF84200682805D18C
:100250009AF8000068280CD1622106E06C2804BFDF
:100260009AF800006C2804D171218DF842100AF12F
:10027000010A12A806901AF801BBBBF125012CD087
:100280001C3900F0D081091F022940F2CC811339BA
:1002900000F02385093900F0C681891E00F0B88579
:1002A000491E00F06585491E022940F2BC81091FE4
:1002B00000F05E85491F00F02881491E00F00D8581
:1002C000491E00F0D080C91E0DD0891E00F00585A2
:1002D000C91E00F0028500F0A6BD25238DF8483028
:1002E000012100F0ABBDD9F8000050F8044BC9F86B
:1002F0000000002C059440F0A3802B99487800283A
:1003000000F099804FF0FF340FF6843000F0FEFECD
:10031000201A40F0B78500F092BD6D1E40F0A9850F
:100320003096079D12AF75B1309E17F8012B02A9C8
:10033000304600F073FE002801D46D1EF5D1002870
:10034000309640F09F850A9D3020002D8DF80400E6
:100350000CDD309E012301AA02A9304600F06EFE9A
:10036000002840F08F856D1EF4D13096059F089DC2
:1003700075B1309E17F8012B02A9304600F04EFEF1
:10038000002801D46D1EF5D10028309640F07A8502
:100390000B9D3020002D8DF804000CDD309E0123D4
:1003A00001AA02A9304600F049FE002840F06A8503
:1003B0006D1EF4D1309605980899099D471875B1BE
:1003C000309E17F8012B02A9304600F027FE0028C6
:1003D00001D46D1EF5D10028309640F053850C9D58
:1003E0003020002D8DF804000CDD309E012301AA81
:1003F00002A9304600F022FE002840F043856D1E21
:10040000F4D130969DF8400041077FF588AE20205A
:10041000002C8DF804007FF782AE309D012301AAE5
:1004200002A9284600F00AFE002840F02B85641E31
:10043000F4D1309573E60FF66440059000F0FFBCF0
:100440000E9D002D04D5204600F080FE044607E0F6
:100450002A46204600F096FE002814BF041B2C46B6
:10046000089400F0ECBCD9F8001051F8040BC9F85E
:10047000001020F00004002121F0FF3512ABCDE97F
:1004800002450593DDE9022306993C2413B90AB914
:100490000E9898B102F00F053035641EEEB23A2E78
:1004A000A8BF2735120942EA03721B090D5508BF80
:1004B000002A03D005980D19A842EBD3081905901E
:1004C000C4F13C020E98089282420ADABDF840104C
:1004D000821A4FF6EF7001400A92ADF8401000F01A
:1004E000AEBC002840F1AB849DF8400000F0140041
:1004F000102840F0A4840F9B07990A985B1A1B1AD6
:100500009A1A002A40F39B84E5E32B99487820B19E
:100510004FF0FF340FF65430F8E69DF842006228A1
:1005200061D0682817D06A283FD06C2806D071287F
:1005300047D074282CD07A281DD064E0D9F8001058
:1005400051F8040BC9F80010002868D14FF0FF34AF
:100550000FF63030DAE6D9F8001051F8040BC9F87C
:10056000001020B94FF0FF340FF61830CEE60D9989
:10057000018000F064BCD9F8001051F8040BC9F8F0
:10058000001000284BD14FF0FF340FF6F820BDE6E5
:10059000D9F8001051F8040BC9F8001000283ED11A
:1005A0004FF0FF340FF6DC20B0E6D9F8001051F818
:1005B000040BC9F8001080B94FF0FF340FF6C420C7
:1005C000A4E6D9F8001051F8040BC9F8001020B9BE
:1005D0004FF0FF340FF6AC2098E60D9AD317C0E920
:1005E000002300F02CBCD9F8001051F8040BC9F816
:1005F000001020B94FF0FF340FF6882086E60D99E1
:10060000017000F01CBCD9F8001051F8040BC9F8B7
:10061000001020B94FF0FF340FF6682076E60D99F0
:10062000016000F00CBCD9F80020D21D22F00702B6
:10063000C9F80020D2E900010832C9F80020CDE94C
:100640000201C80F02D007982D210AE0BDF8400032
:10065000810702D507982B2103E0C00705D507982D
:10066000202112AA1154401C0790DDE902230799AA
:1006700012A8CDE92C2308444BF0200161290590F4
:1006800021AC0BD00E99002902D506210E9105E070
:1006900001BF4BF02001672901220E92DDE9022300
:1006A00059004915491C0DD11A030BD0ABF1610556
:1006B00003211A2D089102D20FF6E41110E00FF673
:1006C000E4110DE059004915491C0DD11A030BD155
:1006D000ABF1610503211A2D089119D30FF6CC1146
:1006E000032200F07BFDAAE3DDE90201CDE92E0142
:1006F000DDE92E2323F00047B7F5801F22F0000626
:100700000DD20022002F08BF002E009203D116E068
:100710000FF69411E4E76A4600F0B4FD0FE0DFF84D
:10072000DC08DFF8DC1800EB17500090DDE92E2321
:100730004FF0FF301940DFF8CC7810403943CDE955
:1007400002014BF0200061280DD105983021017085
:10075000821CBBF1610F05920CBF782158214170BA
:100760000798801C0790DDE9020120F0000231F0BB
:10077000004308BF002A02D10026002568E14BF0A3
:100780002008B8F1610F40F0B4800E98002847BFF0
:1007900021210191401C0190019FDDE92C017F1C6A
:1007A00000220023DDE9024500F0A4FD00998DF848
:1007B000842038BF85F00045091F002F00910DF1FE
:1007C000850653DD204629460022002300F0AAFDBD
:1007D0004CD24800400D00F11C0212D0002A10DD5E
:1007E00040F2FF739A4206DBDFF81C1805F0004068
:1007F0000143002011E06FF31E5141EA02512046EF
:100800000BE024F0000035F0004108BF00280FBFC6
:1008100029461C22294600F09DFD04460D4600F0A5
:1008200037FEFF1F002F804609DD00F04FFE024615
:100830000B462046294600F05BFE04460D46F01D9F
:100840000721B8F1000F0CDD491E5EBF08F00F0252
:1008500000F8012D4FEA2818F3D502E0002200F835
:10086000012D491EFAD5C61D002FABDC0DF1850008
:10087000361A01988642D8BF304600280DF185040B
:1008800030D4B04206DA0DF185010A5C082AA8BF0F
:100890000F2100DA0021024621AB134400E0401E84
:1008A00013F80159521E8D42F9D00F2904D10DF1D0
:1008B00085018B5C5B1C8B54002A04D50099091DB3
:1008C00021AC401C0091411E0CD46218ABF13A06D9
:1008D00013783033DDB23A2DA8BFF318491E02F861
:1008E0000139F5D50E99002940F1B080421E0E92D3
:1008F000ACE00099DFF8142747F29750414391FB91
:10090000F2F2DDE92C45009225F00045D2F1070214
:1009100004DD2046294600F04EFB0BE05242002049
:10092000DFF8EC1600F047FB02460B46204629464E
:1009300000F050FE0446B8F1660F0E9806BF009F07
:100940000A3706273F18142FC8BF142730200D463A
:100950008DF884000DF18506002F39DD20462946EB
:1009600000F05CFF01460A4606F1080304200A264F
:10097000B2FBF6F606EB860EA2EB4E02303203F81F
:10098000012C0A22B6FBF2F202EB820EA6EB4E0617
:100990003036401E03F8026DE9D1083F002F03F105
:1009A0000806D9DD084600F04DFF02460B462046FA
:1009B000294600F09DFD0022DFF8583600F050FF78
:1009C00004460D46CAE700BFCBCCCC0CD861000072
:1009D0000DF18500361A0DF1850404E00098401EE3
:1009E000761E0090641C20783028F7D0B8F1660F8E
:1009F00002D10099491C04E0B8F1650F0CBF012138
:100A000000210E9808188642B8BF701E00281DD419
:100A1000B04204DA215C3429C8BF392100DC30211E
:100A20000246631E9D1800E0401E15F80169521E23
:100A30008E42F9D0392902D1A15C491CA154002A67
:100A400004D50099491C1C46401C00910646009D97
:100A500000F0D8FF406A0778DDF8388030B200280F
:100A600002DC01260FF248644BF02000662808BF24
:100A70006D1C16D0672846D128B210F1040F48DB50
:100A8000404546DA9DF840006D1C010703D430B2A2
:100A90004045B8BF804628B2B8EB000848BF4FF0C9
:100AA00000080FFA85FBBBF1000F00F3B580089832
:100AB000411C0891302205990A54B8F1000F03DC5B
:100AC0009DF84000010704D50898411C089105993C
:100AD0000F5418EB0B0FB8BFC8F100052DB26842D8
:100AE0000B90A84432B29045B8BF4646059B089883
:100AF00036B2099632462146184400F06FFBA8EB47
:100B000006000C90D2E0BBF1610F17D14FF0700BD3
:100B100019E030B2404504DA9DF840100A0758BF8A
:100B20008046B8F1010848BF4FF00008BBF1670FDD
:100B300014BF4FF0450B4FF0650B04E0BBF1410FC4
:100B400008BF4FF0500B0898411C0891B8F1000FF6
:100B5000059914F8012B0A5403DC9DF840000107A5
:100B60001AD50898411C0891B8F1000F05990F5447
:100B700012DD761E30B280450598089BB8BF464608
:100B800032B22146184400F029FB089936B2711898
:100B90000891A8EB06000B9005980899084429B223
:100BA000002980F800B003D42B224270821C04E09C
:100BB0002D2242700D46821C6D4200212CAB28462E
:100BC0000AE004460A2094FBF0F000EB8005A4EB59
:100BD000450403F8014B491C00B20028F1DC01294F
:100BE00006DC4BF02000652804BF302002F8010B22
:100BF00000292CAB08D1302002F8010B06E0491E79
:100C0000585C303002F8010B0029F8DC059908988F
:100C10000844121A099249E030B229B288421CDA1B
:100C20000598089B32B22146184400F0D7FA08997B
:100C300036B27118ABEB0606B8F1000F08910B96AF
:100C400003DC9DF84000020704D505984754099934
:100C5000491C0991CDF8308028E00598089B2AB2FC
:100C60002146184400F0BAFA0898761B5844B8F1A7
:100C7000000F089003DC9DF840100A0703D5411CC3
:100C8000089105990F5430B280450598089BB8BF6C
:100C9000464632B204EB0B01184400F09FFA089864
:100CA00036B230180890A8EB06000B909DF8400073
:100CB00000F01400102840F0C280079A08990B98A1
:100CC0008A18099982180C988A1882180F988242FB
:100CD00080F2B580821A0A92B1E09DF84200622843
:100CE00008D068280ED06A2814D06C281FD071282C
:100CF00010D01CE0D9F8001051F8040BC9F800100E
:100D0000C0B21AE0D9F8001051F8040BC9F800106D
:100D100080B212E0D9F80020D21D22F00702C9F8F3
:100D20000020D2E900010832C9F8002006E0D9F815
:100D3000001051F8040BC9F800100021CDE90201A0
:100D40009DF8400001075AD5DDE90223002B08BFBA
:100D5000002A54D04BF02000782850D1079812A9CF
:100D600030220A54401C431C079301F800B046E0AF
:100D70009DF84200622808D068280ED06A2814D056
:100D80006C281FD0712810D01CE0D9F8001051F841
:100D9000040BC9F8001040B21AE0D9F8001051F85D
:100DA000040BC9F8001000B212E0D9F80020D21DDF
:100DB00022F00702C9F80020D2E900010832C9F880
:100DC000002006E0D9F8001051F8040BC9F8001013
:100DD000C117CDE90201002902D507982D210AE0AB
:100DE000BDF84000810702D507982B2103E0C0071A
:100DF00005D50798202112AA1154401C079012A86B
:100E000007990144059102A8594600F04FF816E0F1
:100E100001200790D9F8000050F8041BC9F8000021
:100E20008DF848100BE025210122BBF1000F8DF851
:100E30004810079203D08DF849B0022107910F9A0C
:100E400007980A990C9C121A0898521A0B99121AB0
:100E50000998521A121A9DF84000141B41073FF5D9
:100E600060AA2020002C8DF804007FF75AAA309E3B
:100E70002546012301AA02A9304600F0DFF8002828
:100E80003FF44BAA4FF0FF3031B0BDE8F08F0000C7
:100E90007072696E74665F733A20626164202573B4
:100EA00020617267756D656E740000002DE9FC436A
:100EB00007466F293E6908BF082405D041F020008D
:100EC000782814BF0A2410243C25D7E9002364297C
:100ED00018BF69299046994605D1002B03D5D8F152
:100EE000000869EB4909B9F1000F08BFB8F1000F1C
:100EF0000CD1386B50B9082C39D197F8380001075C
:100F000035D530203B2586F83B0030E08DF80010C9
:100F1000404649462246E31700F078FD3032D0B211
:100F20006D1E3A28019504DB9DF80000A0F15101E7
:100F30008A187255404649462246E31700F066FD7E
:100F400080465FEA010908BFB8F1000F03D0F868D6
:100F500071198842DCD3082C09D197F838000107B1
:100F600005D5705D302802D06D1E30207055C5F15A
:100F70003C02BA617119F960386B824208DA821A50
:100F80003A624FF6EF70398F01403987BDE8F3833D
:100F900000280ED597F8380000F01400102808D16A
:100FA0007B6B7969386A5B1A1B1A9A1A002AC8BFC8
:100FB0003A62BDE8F3832DE9D04306460F46144656
:100FC0004FF00008DFF8509012E0E00707D54246E6
:100FD0004B463046394600F043FC06460F46404635
:100FE000494642464B4600F03BFC64108046894629
:100FF000002CEAD130463946BDE8D08302FCFFFF21
:10100000FFFF0F800000E03F0000F07FA08601009E
:101010000000F03F84D797410000244010B50346FC
:101020000C461146A0689847A06020B1E06A401CB9
:10103000E062002010BD4FF0FF3010BDF8B505464E
:101040000E4617461C4600205CB117F8011BB0681D
:10105000A847B06030B1F06A401CF0620020641E06
:10106000F3D1F2BD4FF0FF30F2BD00007072696E37
:1010700074665F733A20256E20646973616C6C6FCF
:10108000776564007072696E74663A2062616420EC
:10109000256E20617267756D656E7400000000003A
:1010A0006E616E004E414E00696E6600494E46000C
:1010B000300030B4002513E050F8042BD30744BFB0
:1010C000A9F101039A18091F042942F8045BFAD216
:1010D00013468C0744BF15809B1CC90748BF1D7071
:1010E00050F8041B0029E7D130BC7047C9B2027820
:1010F0008A421AB11CBF10F8012FF9E718BF00206F
:1011000070470268531C03601170704780B500B9C6
:1011100006A005490B681BB122220021984701E077
:1011200000F0F7FC222002BD2C040020636F6E73D8
:10113000747261696E742068616E646C65723A20C5
:10114000626164206D6573736167650000F101037E
:10115000810704D010F8011B820781B1FAD102681F
:10116000A2F10131914311F0803104BF50F8042FF6
:10117000F6E709BAB1FA81F100EBD100401CC01AC0
:1011800070472E00C9B2830706D0521E22D310F832
:10119000013B9942F7D11FE0083A13D302F1040250
:1011A00041EA012141EA014150F8043B121F21BFED
:1011B0004B40A3F1013C2CEA030C1CF0803FF3D020
:1011C000C9B2001F083210F8013B521E28BF91EA35
:1011D000030FF8D818BF0120401E704762B38B0779
:1011E00008D0521E11F8013B00F8013B00F02480AA
:1011F0008B07F6D1830740F0208000BF103A07D359
:1012000030B4B1E83810103AA0E83810F9D230BC48
:10121000530724BFB1E80810A0E8081044BF51F8F4
:10122000043B40F8043BD20724BF31F8022B20F8DE
:10123000022B44BF0B7803707047121F17D35B005B
:1012400009D151F8043B20F8023B1B0C121F20F877
:10125000023BF6D20BE051F8043B00F8013B1B0ABD
:1012600020F8023B1B0C121F00F8013BF3D238BFE1
:10127000121D521E24BF11F8013B00F8013BF8D8A3
:101280007047000010B5144600F002F8226010BD4F
:10129000C1F30A5343B14A0012F5001F28D2A3F24A
:1012A000FE32A1EB0251704750EA410C20D001F010
:1012B000004C31EA0C01B1FA81F204BFB0FA80F3BC
:1012C000D2180B3AB2F120032CBF00FA03F191407F
:1012D00041EA0C013EBFC2F1200C20FA0CF3194385
:1012E0009040524240F2FD33D21A01EB0351704755
:1012F000002270474FF4001C1CEB410F94BF1CEB05
:10130000430F09E041EA030C50EA4C0C52EA0C0C82
:1013100003D2994208BF9042704714BF8B42824269
:10132000704700004FF4001C1CEB410F94BF1CEBF6
:10133000430F09E041EA030C50EA4C0C52EA0C0C52
:1013400003D28B4208BF8242704714BF9942904239
:1013500070470000124254D440F2FF7C1CEA115343
:101360000FD0634531D09B1863453CBF01EB025160
:10137000704701F0004141EA0C510020AFF30080BA
:10138000704750EA410320D001F0004C91EA0C0173
:101390001CD0B1FA81F30B3B9A420DD9D21A994075
:1013A00051EA0C01C3F1200C20FA0CFC6144984076
:1013B000531C40F2FF7CD7E7914041EA0C01C2F197
:1013C000200C20FA0CF3194390407047B0FA80F3D8
:1013D0001533202BE0D3202AEED3203A203B9A422B
:1013E00009D9D21A00FA03F141EA0C010020531C7A
:1013F00040F2FF7CB8E700FA02F141EA0C0100205C
:101400007047524240F2FF7C1CEA11530DD06345F5
:10141000DBD0B2EB030C3CBFA1EB025170470CF1E7
:10142000010221EA035141F4801150EA410CCCD071
:1014300001F0004C352A27DC30B481EA0C01B2F10E
:10144000200309DAC2F12003044601FA03F5D04073
:101450002843D1409C400CE0C3F12002450020FA13
:1014600003F418BF44F0010421FA03F091400C4347
:10147000002174F1004550F1000051EB0C012442B1
:1014800030BC7FF47BAF70476146002076E70000F8
:10149000C1F30A5340F2FE329B1A14DDD3F120034C
:1014A0004FEAE17208DDC90241EA505141F00040C3
:1014B000D84080185040704703F2E13010B1D24359
:1014C00082F000407047002070470000C11768B1EB
:1014D0004840401AB0FA80F29040D21CC907C2F5C9
:1014E000846241EA025202EBD021400570470000BD
:1014F00070B44FF0004591EA030F40F115836B4043
:10150000841A71EB030603D2001BB1411219734117
:101510004FF4001C1CEB410F34BF7CEB430442E052
:101520000C0DA4EB1356352E4FDC45EAC323DB0A22
:1015300045EAC121C912B6F120050DDD63FA05F6B1
:10154000EB4086EA0305124218BF45F00105C018BA
:1015500051F100010CD213E062FA06F5F240554059
:10156000F3415A40B340F3405A408018594107D3E1
:1015700049085FEA30005FEA350528BF45F00105FC
:1015800001F58011420875F1004250F1000041EB75
:1015900004514E0016F5001F70BC38BF7047002084
:1015A000090D090570471CEB410F10D252EA4306A2
:1015B0000BD0BCEB410F05D80C0DAB43661E342E8F
:1015C000B6DD02E0AB438018594170BC704770BC77
:1015D00070470000F0B540F2FF7581EA030C0CF093
:1015E000004C15EA11541DBF15EA1357AC42AF4227
:1015F000E5E0BC41C1F31301C3F31303801A994121
:1016000043F4801304D2641E4000494180185941BC
:10161000C90241EA5051B1FBF3F603FB1611A2FBDC
:101620000675D7EBC020A94102D2761E8018594119
:10163000C90241EA5051B1FBF3FE03FB1E11A2FBAC
:101640000E75D7EBC020A94103D2AEF1010E801870
:101650005941890241EA9051760546EA8E2EB1FB46
:10166000F3F603FB1611A2FB0675D7EB8020A94108
:1016700002D2761E80185941C90241EA50514EEA01
:10168000060EB1FBF3F603FB1611A2FB0675D7EBB2
:10169000C020A94102D2761E80185941C90241EAF0
:1016A0005051B1FBF3F703FB1711A2FB0735D3EB46
:1016B000C020A94167F100070CBF004247F00107B5
:1016C00066F3D5274FEA1E31B80814F5806412DDA1
:1016D000BD0775F1004250EB0E5051EB045111F56E
:1016E000801F5CBF41EA0C01F0BD4CF07F6141F00E
:1016F000E0410020F0BDBD076D0840EA0E5041F406
:101700008011D4F10104B4F120060ADAC4F12006F4
:101710000200E04001FA06F3E1401843B2401543ED
:101720000EE0342C13DCC6F1200445EA40056D08B8
:1017300020FA06F2154321FA06F0A1400D430021DC
:1017400075F1004250F1000051EB0C01F0BD00209A
:101750005FEA0C01F0BDCFB992185B41B3FA83F791
:1017600004BFB2FA82F6BF190B3FB7F120062FBFB4
:1017700002FA06F3BB40C7F1200622FA06F638BF8C
:101780003343BA401CB1E419641E33E77F4231F0A1
:101790000041B1FA81F404BFB0FA80F6A4190B3C01
:1017A000B4F120062FBF00FA06F1A140C4F12006D3
:1017B00020FA06F638BF3143A0403C1B1AE7AC4282
:1017C0001ABF05EA1357AF4212E050EA41061CBFA8
:1017D00052EA4306BFE750EA4107304661461CBF64
:1017E00041EA0551F0BD52EA430C08BFC143F0BDC8
:1017F00000204FF4001616EB410F98BF16EB430F75
:1018000008BF16EB410F24BFC14305E016EB430FA1
:101810000CBF61464CEA0551F0BD0000400D49186F
:1018200040EA81200CD2490DA1F58061491C40F0AD
:10183000004005DBD1F11F0154BFC840C0177047FD
:1018400000207047014648B1B0FA80F18840C91CB9
:10185000C1F58461090501EBD02140057047000006
:10186000B0B581EA030C0CF0004C40F2FF7515EAAC
:1018700011541DBF15EA1357AC42AF4239E0E419C9
:1018800023EA455343F48013C90241F0004141EA81
:10189000505EC7021100A7FB020200284FF00000B3
:1018A000EEFB01204FF00001E3FB072118BF42F0DF
:1018B0000102401800214941E3FB0E01A4F58064B8
:1018C0000F0302D252004041494154F101046CDD42
:1018D000470872F1004250F1000051EB0451A1F5AC
:1018E00080115CBF41EA0C01B0BD4CEA05510020FB
:1018F000B0BD05EA1357AC4214BFAF4241E050EA15
:10190000410E1CBF52EA430E02E061460020B0BD0A
:1019100024423C441BD15FEA070EF6D0090302BF04
:1019200001460020AEF1140EB1FA81F7AEEB0704C8
:1019300001FA07FE0C37C7F1200100FA07F7C8408B
:101940004EEA000E23EA455343F48013A2E733F036
:101950000043B3FA83F704BFB2FA82FE77440B3F29
:10196000E41BB7F1200E2FBF02FA0EF3BB40C7F104
:10197000200E22FA0EFE38BF43EA0E03BA40641C62
:1019800082E750EA410E14BF52EA430E6FF00001A5
:101990004FF4001717EB430F8ABF194617EB410F9F
:1019A000B5E74CEA05510020B0BDD4F10104B4F113
:1019B00020070FDAC4F12007520828BF42F00102C5
:1019C00010FA07F501FA07F7E1BF2A43E040384370
:1019D000E1400FE0352C98DCC7F1200452EA4002C8
:1019E00020FA07F218BF42F0010231FA07F0A140D5
:1019F0000A43002172F1004250F1000051EB0C014A
:101A0000B0BD00000048704748020020D3BBD9B1E8
:101A1000B2F5803F5BD2022A1ED98C46B1FBF2F1AF
:101A200002FB11C31B0443EA1043B3FBF2FC02FBAD
:101A30001C3380B240EA0343B3FBF2F002FB1032E6
:101A400040EA0C4000237047022A05D98446B0FBC7
:101A5000F2F002FB10C270474AB105D100F001025A
:101A600049085FEA3000704700220023704700F009
:101A700011B90B000200002100207047F7D30022AB
:101A800000237047904271EB030CF2D370B5B1FAAA
:101A900081F4B3FA83F52C1BA340C4F1200532FA7C
:101AA00005F63343A2405FF00046E64002E05B08E3
:101AB0005FEA3202841A71EB030524BF20462946EF
:101AC0007641F4D302000B003000002170BD70B5E8
:101AD000B1FA81F4B2FA82F5C4F120046419B4F1C8
:101AE0002006DAD3B2405FF00044F440002502E063
:101AF00052085FEA3303C61A71EB020E24BF304668
:101B0000714664416D41F3D302000B0020002900AF
:101B100070BD012000F0C0B870B44FF0004591EAEC
:101B2000030F7FF5EDAC6B40841A71EB030604D212
:101B30006E40001BB141121973414FF4001C1CEBA5
:101B4000410F34BF7CEB430683E00C0DA4EB13562E
:101B5000362E00F37C80012E45EAC32341DC43EAA4
:101B6000525312BFD20292025B08240545EAC121FA
:101B700041EA5051D2EBC020994125D407D1B0FAA7
:101B800080F610FA06F162D00020203608E0B1FAA3
:101B900081F6B140C6F1200220FA02F21143B040B2
:101BA0004FEAF474B4EB465434F001064FEA74047F
:101BB0000AD8D6F50016760D04F00044F04061FA1C
:101BC00006F25040F1404840C00A40EA415021F03E
:101BD000004128BF5FEA500550F1000044EBD121DD
:101BE00035E0DB0A45EAC121C90AB6F120050EDD60
:101BF00042EA0242120CC5F1200603FA06F6EB4057
:101C000042EA06056D42984161F100010DE062FA79
:101C100006F5F240554063FA06FC82EA0C02F340F6
:101C20005A406D42904161EB030111F4801F05D1D0
:101C3000641E620502D06D004041494121F48011CB
:101C4000430875F1004350F1000041EB045170BCB2
:101C500070471CEB410F15D223F0004352EA4306B4
:101C60000BD04FEA4C0CBCEB410F04D80C0D661E98
:101C7000342EB7DDEBE7801A994150EA410608BFE0
:101C80000021E4E708BF1CEB430F28BF6FF0000101
:101C9000DDE700007047000080B5AFF30080024A26
:101CA00011001820ABBEFBE726000200F8B50400C7
:101CB00022D004F13C05697821B900202870204623
:101CC00000F0A4FC2421697000F0B3FA20680168D8
:101CD00041F4004101602068026822F40042026081
:101CE00000F0FFFE01466068DFF82421904205D233
:101CF000DFF80032994205D20120F2BDDFF8F80189
:101D00008142F9D32068DFF8F4314668B1FBF3F380
:101D1000B60943EA861646602668376A60689042CC
:101D200006D34FF4967043434FF47A70B3FBF0F34D
:101D30005B1CBF0943EA87133362491E2368DE69CF
:101D40006768974206D27F0000F043F8042913D257
:101D5000042111E0A06820B907EB470700F039F82B
:101D600005E01920474300F034F841F480410805AC
:101D70000CBF012141F40041DFF8B80106400E43D9
:101D8000DE6122681368E169206A23F0C0030B4317
:101D9000034313602268DFF8A001936821690340C0
:101DA000E0680B43034393602168CA68A3696069D4
:101DB000120A034343EA0222CA602068016841F024
:101DC0000101016000206860202169702063A87013
:101DD000F2BDB1FBF7F1491CC1F30B01704700697B
:101DE000616A0870606A421C704732464946204664
:101DF00000F0B1BB33464A464146204600F022BBC4
:101E0000202078700021B9700020387070470000E1
:101E1000A18601002DE9FC47064600F08FF800F08E
:101E200075F864D1009400F07FF8304600F0E2FAD3
:101E300000285CD13878012859D000F084F8414658
:101E4000D6F800E00C9D0B98DDF828C0DEF8008085
:101E500028F40068CEF800804FF0210E87F801E0EA
:101E60004FF0400887F802804FF0000EC7F804E0FA
:101E7000C6F824C070855346708D30854A46DFF819
:101E8000A403F06201940095304600F0E6F90028C2
:101E900026D106E0716A0A78026100F03DF8411E21
:101EA0007185308D88B122462946304600F00BFB03
:101EB00088B9706A32680178116100F02DF800F07D
:101EC0001FF8EED589B20029E4D1224629463046D2
:101ED00000F024FB30B17868042801D100F081FAC9
:101EE000012005E000F07DFAFFF78AFF00E0022004
:101EF000BDE8F68780841E0000093D0040420F00C7
:101F0000421E7285306842695307704706F13C07EC
:101F10000446787820287047706A411C7162308DC1
:101F2000411E3185708D704719230122DFF81C1383
:101F3000704700000030FFFF007CFFFF884691469D
:101F40009A4600F003BE0121397030680268D1075B
:101F500003D4026842F00102026070472DE9FC4799
:101F6000044600200090FFF7E9FF04F13C06054617
:101F70007078202805D10095FFF7D6FF00F01EF9F4
:101F8000002840F0B7803078012800F0B3800121AC
:101F9000317000F0DFF84146D4F800E00C9F0B9858
:101FA000DDF828C0DEF8008028F40068CEF8008054
:101FB0004FF0220E86F801E04FF0400886F80280CC
:101FC0004FF0000EC6F804E0C4F824C06085534604
:101FD000608D20854A4600F03CF901950097204627
:101FE00000F08EF9002870D1208D10B900F09FF814
:101FF0001EE0012802D100F000F905E00228206867
:10200000016804D100F0E9F80A6062B610E000F05F
:10201000D8F80DE02A463946FFF7E9FE002854D1EA
:1020200000F0A1F8208D6262411E218500F06DF85C
:10203000208D002857D0042849D20128EAD0022850
:102040002E4900953B460BD1002200F0B7F800283E
:102050003BD100F08FF8218500F057F862B6DFE73A
:10206000002200F0ABF800282FD100F06CF84FF4FC
:102070007A7E20680169606A0170616A208D4A1C5D
:10208000411E62622185608D654A411E618519216C
:102090001368B3FBF1F1B1FBFEFE232000FB0EF051
:1020A0000090216800F02CF828B148694207F9D562
:1020B00000F02FF8CFE7206320217170B0707168B5
:1020C00041F02001716062B63070012013E02A46B1
:1020D0003946FFF78CFE0028F7D100F05BF8A7D552
:1020E000FFF77DFE9EE7202070700021B170002078
:1020F000307000E00220BDE8F68700000400010017
:102100000098401E009000987047608D411E6185C8
:102110007047086840F40070086021680869616AC7
:102120000870606A421C208D6262411E70470090F8
:1021300021684A6900928B69009300980A6842F40A
:1021400000720A6070472068016821F480610160B4
:1021500072B6704720680268D10703D4026842F063
:1021600001020260704720680169606A0170616A5B
:102170004A1C704772B62068016841F40071016022
:1021800020680169606A0170616A208D4A1C411EE5
:102190006262704720680169606A0170616A208D1F
:1021A0004A1C411E62622185608D411E6185206846
:1021B00041694A07704700224FF00111204600F0A4
:1021C00019B941F4806101600020009021684A69DA
:1021D0000092896900910098704741F400610160A4
:1021E00072B60020009021684A6900928B690093C2
:1021F00000980A6822F4806270472068016821F420
:102200008061016072B60020009021684A690092E6
:102210008B69009300980A6842F4007270470000CE
:10222000440200200000FFFF009021684A690092EC
:102230007047206802685208520002607047306898
:10224000016841F4807101607047000002001000D5
:1022500020855848E062704700002DE9F8430446A5
:102260002068DDF82080099F8946016841F480716B
:1022700015461E46016000974346FFF79CFF40B19C
:1022800020680168CA0544BF4FF400702064032031
:1022900025E0206809F0FE0101613B464246DFF877
:1022A0005011FFF7AAFDA0B9FFF7BEFF00F019F823
:1022B00000F024F840B9012E0DD02168280A0861E9
:1022C0003A4600F01AF830B1206C042801D100F031
:1022D0000EF8012003E02068EDB205610020BDE8A2
:1022E000F2833A4689690091414600987047206818
:1022F000016841F400710160704741462046E2E008
:102300002DE9F84F05462868DDF828800B9F0C461C
:1023100000F062F816462868016841F48071994619
:10232000016000F052F800284FF4007A2ED129689D
:10233000DFF8BCB004F0FE00086100F041F80028AE
:1023400034D1009029684A690092FFF7CAFF00F073
:1023500035F870B9B9F1010F05D02968300A086164
:1023600000F02AF828B92868F6B2066100F024F8CF
:1023700030B1286C042819D1286800F033F815E032
:102380002868FFF75DFF00F020F838B12868016881
:10239000CA0548BFC5F840A0032008E0286844F0FB
:1023A0000104E4B2046100F00BF800B10120BDE8C3
:1023B000F28F00000000FFFF3A464146284682E0C7
:1023C0003B464246594628463CE000974346002299
:1023D0004FF0011128460DE0016841F48061016071
:1023E00070473068016841F4007101607047000077
:1023F000020001002DE9F041069F05460E46904679
:102400001C4631022868090E01290CBF4069806909
:10241000304080B2B1B288420CBF0120002040455C
:102420000DD114F1010FECD000F090FBC01B8442E1
:1024300001D3002CE5D100F063F8012000E000207A
:10244000BDE8F081F8B505460E4614461F46310238
:10245000090E2868012919D14169314089B2B2B207
:10246000914219D041694A0518D500F025F82A682B
:102470005061002105F13C002963202242708170E7
:10248000426842F004024260017013E08169314009
:1024900089B2B2B29142E5D10020F2BD14F1010F30
:1024A000D5D000F053FBC01B844201D3002CCED109
:1024B00000F026F80120F2BD016841F400710160CE
:1024C0006FF48060704770B505460C461646286864
:1024D0004169080612D4284600F069F808B10120C5
:1024E00070BD14F1010FF2D000F030FB801B84426C
:1024F00001D3002CEBD100F003F8F0E7002070BD11
:1025000000202863202105F13C00002241708270E8
:10251000416841F0200141600270704770B5054686
:102520000C46164628684169480712D4284600F030
:102530003EF808B1012070BD14F1010FF2D000F097
:1025400005FB801B844201D3002CEBD1FFF7D8FFA1
:10255000F0E7002070BD70B505460C4616462868A9
:1025600041694A0617D44169CA060BD400F0EEFA55
:10257000801B844201D3002CF1D100F00EF841F011
:10258000200104E06FF01001416100F006F84160A5
:102590000270012070BD002070BD00202863202142
:1025A00005F13C000022417082704168704701686B
:1025B0004A6953050FD56FF480624A6100210163B7
:1025C0003C30202242708170426842F00402426036
:1025D000017001207047002070470000254A2648FE
:1025E000264980B5426000234FF480420160836039
:1025F000C360026143618361C3610362FFF756FBFD
:1026000018B1BDE8014000F065BB01BD18B585B04B
:1026100004461022002101A800F05EFB2168174843
:10262000814224D1164C216841F0080121604FF409
:102630004071206800F008000090122200981148B4
:10264000019102920321049101A900F04FFB0E4871
:10265000016841F0E06141F002010160606840F40E
:1026600000106060606800F400100090009806B0F0
:1026700010BD0000A08601005C0300200054004053
:1026800018100240000C0140040001402DE9F843FD
:10269000040016D02078DFF87064C10713D5706885
:1026A00000F00C00042807D0706800F00C00082827
:1026B00041D17068C1033ED53068810303D560689D
:1026C000002800F064812078DFF84C74810719D568
:1026D000706810F00C0F07D0706800F00C0008282C
:1026E00061D17068C1035ED43068810703D5206969
:1026F000012840F04C813168606921F0F80141EA1D
:10270000C00131602178080740F18180A069DFF8BD
:102710000C14002800F0A68001220A6000F016FACE
:102720000546706A810763D400F010FA401B022846
:10273000F7D903202EE16068B0F5803F04D13068FE
:1027400040F48030306014E008B930680AE0B0F539
:10275000A02F306806D140F480203060316841F409
:10276000803105E020F480303060316821F4802130
:102770003160606858B100F0E9F9054630688103BE
:10278000A1D400F0E3F9401B6528F7D3D1E700F0AE
:10279000DDF905463068810395D500F0D7F9401B77
:1027A0006528F7D3C5E72069A8B10121396000F099
:1027B000CDF905463068810705D400F0C7F9401B04
:1027C0000228F7D9B5E73068616920F0F80040EADF
:1027D000C100306096E7386000F0B8F9054631680E
:1027E00088078FD500F0B2F9401B0228F7D9A0E77F
:1027F000DFF818030168C9084FF47A72B1FBF2F2EE
:10280000009200BF0098411E00280091F9D1207865
:1028100041076ED5F0690025C10009D4F06940F088
:102820008050F0610125F06900F080500090009820
:10283000DFF8EC82D8F80000C10520D4D8F80000F9
:1028400040F48070C8F8000000F080F98146D8F8A4
:102850000000C10513D400F079F9A0EB0900652848
:10286000F5D366E7086000F071F90546706A8107E4
:10287000CDD500F06BF9401B0228F7D959E7E06885
:10288000012808D008B9306A09E00528306A06D165
:1028900040F004003062306A40F0010005E040087A
:1028A00040003062306A20F00400306241F2893822
:1028B000E06860B100F04AF98146306A810713D4BC
:1028C00000F044F9A0EB09004045F6D331E700F0F1
:1028D0003DF98146306A810706D500F037F9A0EB53
:1028E00009004045F6D324E71DB1F06920F080507F
:1028F000F061E06900284CD0716801F00C010829F2
:1029000038D002282AD100F047F805463068810106
:1029100005D500F01BF9401B0228F7D909E7206A0A
:10292000B0F5803F05D17168A06821F40031014302
:1029300071607268206A616A22F4741202430A4369
:102940007260012000F029F804463068810120D42B
:1029500000F0FCF8001B0228F7D9EAE600F01CF8AA
:1029600004463068810114D500F0F0F8001B0228FD
:10297000F7D9DEE601280AD07068226A00F48031B7
:10298000914202BF00F47010616A884201D00120B8
:1029900000E00020BDE8F2830020386600F0D6B8E1
:1029A0002DE9F041040088464ED05E4E00F077F8E5
:1029B00002D200F06FF847D12068534D810712D53D
:1029C000400703D5696841F4E06169602078010738
:1029D00003D5686840F4605068606968A06821F0B9
:1029E000F001014369602178C80725D56068012896
:1029F00002D129688A0303E00228296802D18A01EA
:102A000002D421E08A071FD56968890840EA81005D
:102A1000686000F09BF807466868616800F00C0089
:102A2000B0EB810F08D000F091F8C01B41F2893162
:102A30008842F1D303202BE0306800F00700804586
:102A400004D200F027F801D0012021E020784107CE
:102A500005D56A68E06822F4E06202436A60217882
:102A6000080706D56968206921F4605141EAC00170
:102A7000696000F019F86A682B49244BC2F303120D
:102A8000895CC84018602348006800F01BFA0020E9
:102A9000BDE8F0813168C90848EAC1013160306899
:102AA00000F0070040457047204919480A6802F0C5
:102AB0000C03082B00D0704710B500BF1EA4C2F352
:102AC0008343D203E35C08D5096858431EA3C1F3CE
:102AD00040415A5CB0FBF2F010BD1846144948431F
:102AE00010BD0A48114A006813681249C3F3022254
:102AF00006E006480D4A006813680E49C3F3C22277
:102B0000895CC84070470000001002404402002069
:102B100000127A00D80000200000424280044242A5
:102B20000070004000200240706B0008041002405A
:102B300000093D009C6B0008020304050607080914
:102B40000A0B0C0D0E0F1010010200000148406826
:102B5000704700BFD0000020E0B500F0D3F900F0CE
:102B60002DF800F0E1F900F045FA00F09FFAFFF7C8
:102B700035FD00F0F3FA00F04FFB4FF47A7000F0EF
:102B800057FB00F06AFC0120019000900723072208
:102B90004A48002100F04CFF494A92F850010128B0
:102BA00007D14FF4FA61102001F001F800F048F865
:102BB000FCE74FF4FA6001F01EF8F7E718B593B0A0
:102BC000282109A801F0A0F81421684601F09CF81A
:102BD00005A8002100220023002480E81E00012116
:102BE00009910B924FF480310A9111910123022235
:102BF0004FF4E0110D931092129109A8FFF746FDD2
:102C000008B100F067F8022101910F204FF48061B4
:102C1000009003910294049402216846FFF7C0FEDD
:102C200008B172B6FEE702214FF400420591079207
:102C300005A801F06DF808B172B6FEE714B010BD3A
:102C400038B5204C2078032841F2883534D8DFE8A5
:102C500000F0020B1421FFF779FF00F037F82BD2B8
:102C600000F0FAFA012010E0FFF770FF00F02EF8F4
:102C700022D200F008FC022007E0FFF767FF00F017
:102C800025F819D200F03CFC03202070FFF75EFF0E
:102C9000606031BDFFF75AFF00F018F80CD200F069
:102CA00041FC00202070FFF751FF60600221BDE869
:102CB0003440054800F0E4B831BD0000809AF43695
:102CC000DC000020240400200008014061686D1829
:102CD0008542704772B6FEE710B5044610460A46B4
:102CE0000146204601F0EEF8204610BD2DE9F847D8
:102CF0004FF0000E0024664A664BDFF89C814FF0CF
:102D00000F0982460CE0D7683840D06006E0956035
:102D10004D68AD02F7D5D0680743D7600EF1010EBC
:102D20000F6837FA0EF000F09F80012000FA0EF6CF
:102D30003740B742F2D1486838B301281AD0022888
:102D40001DD003282ED0112816D012281AD0534D8A
:102D5000A8421CBF524DA84217D0524DA8421CBFDA
:102D6000514DA84211D0514DA8421CBF504DA84210
:102D70000BD018E0CC6816E0CC68241D13E0CC68BA
:102D8000083410E0CC680C340DE0886808B90424DD
:102D900009E0012819BF0824CAF814600824CAF8F9
:102DA000106000E00024B7F5807F03D250464FEA60
:102DB0008E0C05E0AEF108050AF104004FEA850C1F
:102DC000056809FA0CF6B54304FA0CF635430560BC
:102DD0004868C000A2D5D8F8000040F00100C8F84B
:102DE0000000D8F8005005F0010500954FEA8E0567
:102DF00000984FEA9E0053F8206005F00C0C09FA89
:102E00000CF526EA05052B4EB24508BF00260ED06C
:102E1000294EB24508BF012609D0284EB24508BF49
:102E2000022604D0264EB2450CBF0326042606FA1D
:102E30000CF6354343F82050F8434D68ED03156810
:102E40004CBF3D43054015604D68AD0355684CBF10
:102E50003D43054055604D689668ED024CBF47EA1A
:102E6000060500EA060552E7BDE8F18780680840DC
:102E700018BF0120C0B2704702B909040161704750
:102E8000C26801EA0203914341EA034101617047CC
:102E90000004014008000140181002400000111019
:102EA000000012100000211000002210000031105C
:102EB0000000321000080140000C014000100140E9
:102EC0000014014038B50D4D0D4B2A7804464FF4DF
:102ED0007A711868B1FBF2F2B0FBF2F001F068F819
:102EE00050B9102C08D2002221464FF0FF3001F0DB
:102EF00037F8AC60002032BD012032BDD000002088
:102F00004402002080B50748016841F010010160CB
:102F1000032001F018F80F20FFF7D4FF01F068F844
:102F2000002002BD0020024030B585B010220021F3
:102F30006846FFF7D1FE2748274C0168274D41F02E
:102F400020010160026802F02002049204990268E4
:102F500042F004020260036803F00403049304993E
:102F6000026842F0080202600022006800F00800D7
:102F700004904FF4A17104982046FFF77DFF0122D1
:102F80004FF480512846FFF777FF4FF4A17100F00E
:102F900027F82046FFF7AAFE4FF42070002100908A
:102FA0000191029120466946FFF7A0FE40F6060017
:102FB000002100900191029128466946FFF796FE94
:102FC0004FF4805100F00CF82846FFF78FFE05B053
:102FD00030BD00001810024000080140000C014004
:102FE000009101220192002102910222039269467E
:102FF0007047000080B52948294901604FF482726A
:10300000426000234FF400720A218360C3600361B1
:1030100043618261C361036243628362C16201F002
:1030200009F818B1BDE80140FFF754BE01BD18B55D
:1030300085B00446102200216846FFF74DFE216846
:103040001748814228D11748174C416841F4804104
:103050004160416801F4804104910499026842F0A2
:10306000080202604FF42041006800F0080004905C
:10307000022204980091019203210391204669469F
:10308000FFF734FE4FF4804000210090019102913F
:1030900020466946FFF72AFE06B010BD0403002053
:1030A0000038004018100240000C01401FB50C22EF
:1030B00000216846FFF710FE0021244CA160217317
:1030C0004FF4602122482060E1610020207560609B
:1030D00001212161204601F023FA08B1FFF7FAFD32
:1030E000002001210090019102906946204601F0E4
:1030F000B7FB08B1FFF7EEFD1FBD18B585B004465C
:103100001022002101A8FFF7E7FD21681048814245
:103110001AD11048016841F400710160032302686C
:1031200002F4007200920099026842F00402026008
:103130000122006800F004000090009901920293BF
:1031400001A90548FFF7D2FD06B010BDF403002029
:1031500000240140181002400008014080B52948B1
:10316000294901604FF4165200230C21426083600C
:10317000C360036141618361C36101F06BFC18B1FD
:10318000BDE80140FFF7A6BD01BD18B585B00446F6
:10319000102200216846FFF79FFD21681A488142EE
:1031A0002ED11A481A4C416841F4003141604168FF
:1031B00001F4003104910499026842F004020260B3
:1031C0000421006800F00400049002220498009199
:1031D00001920321039120466946FFF787FD0820ED
:1031E000002100900191029120466946FFF77EFD83
:1031F00000220021262000F0B3FE262000F0CDFEA4
:1032000006B010BDB003002000440040181002407A
:10321000000801407047000001220349FFE703480E
:1032200001F053BC0000000080020020B003002029
:1032300038B50446FFF78AFC14F1010F054602D0A9
:10324000044908780419FFF781FC401BA042FAD317
:1032500031BD00BFD0000020F8B5DFF82445DFF80D
:103260002455616B052000F02EFA0746394604F11B
:10327000580000F0EBF900F0EDF8A06105D801F07E
:1032800021FEC1B2A6A000F0FDFA394604F16000AB
:1032900000F0DCF900F0DEF8206206D801F012FE42
:1032A000C1B20FF2485000F0EDFA394604F168005F
:1032B00000F0CCF900F0CEF8606105D801F002FE14
:1032C000C1B2A7A000F0DEFA394604F1700000F0A8
:1032D000BDF900F0BFF8E06105D801F0F3FDC1B21F
:1032E000A9A000F0CFFA394604F1780000F0AEF959
:1032F00000F0B0F8606206D801F0E4FDC1B20FF250
:10330000F44000F0BFFA394604F1800000F09EF965
:1033100000F0A0F8A0620FF2E44605D801F0D2FD5B
:10332000C1B2304600F0AEFA394604F1880000F030
:103330008DF900F08FF8E06206D801F0C3FDC1B24C
:103340000FF2C84000F09EFA394604F1900000F0F8
:103350007DF900F07FF8206306D801F0B3FDC1B21B
:103360000FF2B04000F08EFA616D062000F0ABF96C
:103370000746394604F1980000F068F900F06AF851
:10338000A06306D801F09EFDC1B20FF2904000F09C
:1033900079FA394604F1A00000F058F900F05AF823
:1033A000E06305D801F08EFDC1B2A7A000F06AFA73
:1033B000394604F1A80000F049F900F04BF8206408
:1033C00006D801F07FFDC1B20FF2584000F05AFA62
:1033D000394604F1B00000F039F900F03BF86064C0
:1033E00006D801F06FFDC1B20FF2404000F04AFA7A
:1033F000394604F1B80000F029F900F02BF8A06478
:1034000005D801F05FFDC1B2304600F03BFA394605
:1034100004F1C00000F01AF900F01CF8E06406D8CE
:1034200001F050FDC1B20FF2144000F02BFA394602
:1034300004F1C80000F00AF900F00CF8206508D883
:1034400001F040FDBDE8F440C1B20FF2F83000F0E9
:1034500019BAF1BD294601F04BBD10B5C84C052184
:10346000201D00F093F8002104F1080000F08EF810
:10347000C549052000F027F960630620C34900F024
:1034800022F9606510BD10B5C14C204601F0C2F8AC
:10349000C049204601F0ECF888BB204601F0DDF978
:1034A00080B2FEF7CFF94FF06632BB4BFEF7D8F98A
:1034B0000022BA4BFEF78EF80022B94BFEF7D0F986
:1034C0004FF06632B44BFEF785F801F023FD044659
:1034D00001F0F8FC02462046B24901F04FFD03D24C
:1034E000D1B20FF2683006E0AF4901F001FD06D815
:1034F000D1B20FF26430BDE8104000F0C3B910BD86
:1035000010B54FF40061A948FFF7B0FC38B9A84CDA
:10351000D5A0217800F0B6F92078401C207010BDAD
:103520004C50470038B5A14D02212846FFF79EFCBC
:1035300004212846FFF79AFC10F00F009D4C02D0A2
:10354000012803D031BD0220207031BD217801292E
:1035500040F00580BDE83440C7A000F093B931BD0C
:103560004832000010B50146854C201D00F00EF8D1
:10357000204600F023F80028FAD00121204600F070
:1035800005F8BDE8104027E0434F00002DE9F04169
:1035900004460D4694F80180A778E678404600F08E
:1035A0001CF8B74020EA070705FA06F63743B9B218
:1035B000404600F02EF82570BDE8F08170B5044655
:1035C000A578E678607800F008F8B5400540F54049
:1035D0002570E8B270BD000000201FB5024603A8A8
:1035E0000021018002234FF47A710291019303AC10
:1035F0000094012390217048FEF7B0FC0A20FFF7E9
:1036000017FE9DF80C109DF80D0040EA012004B053
:1036100010BD1FB5024603AB0020009318808DF843
:103620000D10022001900C0A4FF47A7102918DF86E
:103630000C40012390216048FEF7ECFB0A20FFF7C5
:10364000F7FD1FBD00000000436F3200F8B50646CD
:103650000A4637683846002101F0A2FC05D170689F
:1036600001F09EFC01D15548F2BD104601F0A6FCC8
:1036700001F076FE04460D46384601F09FFC2246D6
:103680002B46FEF7EDF8044670680D4601F096FCF7
:1036900022462B46FEF740FA02460B4600204849D8
:1036A00001F060FEBDE8F44001F034BC00880988F8
:1036B000884202DA4FF0FF307047814201DA012080
:1036C000704700207047F8B58AB004460F4628219D
:1036D000684600F019FB002500262046FFF742FF50
:1036E0002DF81600761C1420FFF7A2FD142EF4DB33
:1036F000344B02221421684602F032FC02203DF8CD
:1037000010104D19401C1228F9DB2D03280CFEF770
:1037100099F800F031F800F02BF801F0FBFB0646B9
:1037200001F04CFC04460D46304601F047FC264AA9
:10373000264BFEF795F822462B46FEF7EDF9244A74
:10374000244BFEF7E9F901F0E5FB01F037FC0246F6
:103750000B4600202049FDF73DFF00221F4BFEF7DE
:10376000DBF901F0D7FB394602F006FC0BB0F0BDE7
:1037700000221B4BFDF72EBF1A4A1B4BFEF770B8F9
:10378000000000200100A041643B19418FC2654048
:10379000F403002040420F0066660A4000FEAF407E
:1037A00000002840CDCC2C4167666641000C0140EA
:1037B00030040020310400205C03002000007F431F
:1037C00000002440AD3600080EBE30992A18853F0F
:1037D000098A1F63EE5AB2BF000014400000F0BF18
:1037E000C0FFDF40DBF97E6ABC74184050726F7016
:1037F000616E65004D455448414E4500434152427B
:103800004F4E5F4D4F4E4F5849444500414C434F3A
:10381000484F4C00534D4F4B45000000416C636FC7
:10382000686F6C00416D6D6F6E696100434152427B
:103830004F4E5F44494F584944450000544F4C5542
:10384000454E4500414345544F4E45004261747416
:10385000657279204C6F77004261747465727920CB
:1038600048696768000000004D656E686F6C6C20E9
:103870004F70656E0000000050554D50204143547C
:103880004956450038B588B004460D461E216846A5
:1038900000F03AFA2B4622460FF25841684602F0F1
:1038A000E9FB044600F00BF84FF4FA62E1B2684617
:1038B00000F0C0F90A20FFF7BBFC09B030BD4FF49F
:1038C000FA61C0B273E131B582B00021ADF80410E5
:1038D00000F044F8DFF80C5400F039F800F034F848
:1038E0000128FBD14FF47A700090012301AA0DF159
:1038F0000501284600F09CFC00F026F80128FBD1C9
:10390000012200F02EF89DF804003EBD33B581B0D1
:1039100040F080008DF8040000F020F8DFF8C45378
:1039200000F06BF801A9284600F0D9FB00F00CF874
:103930000128FBD100F00BF800F006F80128FBD1BC
:10394000012200F00EF837BD284600F06BBD4FF4A1
:103950007A73012202A9284600F0C1BB0022DFF8D9
:1039600088434FF480512046FFF786BA2DE9F04195
:1039700004460D4694F80180A778E6784046FFF7A4
:10398000A2FFB74020EA070705FA06F63743F9B267
:103990004046FFF7BBFF2570BDE8F081B6E72DE993
:1039A000F14181B0144640F08000022C0D468DF8A4
:1039B00004001EDB00F035F800F01DF801A94046B8
:1039C00000F08DFB00F02AF80128FBD100270AE067
:1039D000291800F012F8404600F081FB00F01EF8B4
:1039E0000128FBD17F1CF8B2A042F1D3012200F0E4
:1039F0001AF8BDE8F381DFF8EC824FF47A73012204
:103A0000704770B50446A578E6786078FFF75BFFED
:103A1000B5400540F5402570E8B270BD404600F065
:103A200001BDB14E00224FF480513046FFF724BA59
:103A30002DE9F84F04460D46DDF828800B9EDFF88F
:103A4000A0B29246994680215846FFF70FFA401ED1
:103A50008041A24FC00F87F8500100F035F9FFF701
:103A60000BFA01224FF480715846FFF705FA002146
:103A700007F11000FFF77AFF0F20FFF7D9FB0121B4
:103A8000381DFFF773FF002107F10C00FFF76EFFF1
:103A9000E90441EA5431E004944A0023FDF7B6FFFB
:103AA000020C8DF8002004048DF80200240E8DF81D
:103AB0000140032269460620FFF771FF342107F514
:103AC0008C70FFF753FF012107F12000FFF74EFF35
:103AD000072107F12400FFF749FF0F2107F1280014
:103AE000FFF744FF002107F13000FFF73FFF0B21F4
:103AF00007F13400FFF73AFF012107F13800FFF723
:103B000035FF0B2107F14000FFF730FF494607F171
:103B1000D800FFF72BFF414607F1DC00FFF726FF37
:103B2000002107F1E000FFF721FF514607F1E40013
:103B3000FFF71CFF314607F1EC00FFF717FF0021EC
:103B400007F58870FFF712FF012107F58A70FFF76C
:103B50000DFF082107F1F400FFF708FF012107F529
:103B60009670FFF703FF97F85011012907F58E743F
:103B700007F59C7008D18721FFF7F8FE0121204648
:103B8000FFF7F4FEF72108E051B98421FFF7EEFEBC
:103B900000212046FFF7EAFE3F211120FFF7FEFE3D
:103BA000012107F11000FFF7E1FEBDE8F18FFEB53E
:103BB00005460C4600F03BF8484E06F5807729464E
:103BC0003846FFF7D3FE06F14800FFF71AFF01461B
:103BD00006F14400FFF7CAFE3846FFF712FFA8427D
:103BE00007D0641EF8D100F05BF800F048F8002020
:103BF000FEBD0120FEBD3EB5044600F018F8374D6D
:103C000005F14C00FFF7FDFE00F041F8052100F042
:103C100033F804E0641E09D00120FFF709FB05F129
:103C2000B400FFF7EEFE0128F4D13EBD1EE0FF21F7
:103C30001220B3E63EB514460A4601460020FFF7BF
:103C4000AEFE264D032100F017F804E0641E0DD0EF
:103C50000120FFF7EDFA00F01EF80028F6D0FFF77C
:103C6000E6FF012100F008F801203EBD00F018F841
:103C700000F005F800203EBD05F1100076E60120B9
:103C8000019000900723072219480021D0E6014641
:103C900005F144006AE64FF400711148FFF7E6B8F9
:103CA00010B500F011F80E4CFFF7E6F8002200F016
:103CB00010F80120FFF7BCFA012200F00AF8BDE875
:103CC00010406420FFF7B4BA01224FF48051064837
:103CD00070474FF480712046FFF7CEB8DC0000201B
:103CE0000008014004030020000C01400048E801E6
:103CF0008050DE195B204576656E74202573203A6E
:103D00002025645D00000000002202F0D3B900000D
:103D10002DE9FC410646604D3078C10750D5A869B1
:103D20000024C10009D4A86940F08050A861012492
:103D3000A86900F0805000900098584F3868C1057D
:103D400011D4386840F480703860FEF7FFFE80467A
:103D50003868C10507D4FEF7F9FEA0EB0800652816
:103D6000F6D303203FE0E86910F440701EBF71688D
:103D700001F44071884218D04949E86901220A607B
:103D8000002320F440700B60E861C0070DD5FEF7FA
:103D9000DDFE0746E869810707D4FEF7D7FEC01BA2
:103DA00041F289318842F5D3DBE7EA69706822F491
:103DB00040720243EA611CB1A86920F08050A861FA
:103DC0003078810705D52A68B06822F44042024362
:103DD0002A603178C80605D52968F06821F4800189
:103DE000014329600020BDE8F681000010B50021E4
:103DF00001282C4C25D0022843D010284AD16068D5
:103E00002268D30146D500BF29A1C0F38342C00375
:103E1000895C0CD5606800BF29A3234AC0F34040E9
:103E2000185CB2FBF0F308461946414301E01F4A13
:103E30005143606842022DD449000320B1FBF0F1E8
:103E400028E0206A40F202320240B2F5817F08BFCA
:103E50004FF400411ED000F44072B2F5007F05D14E
:103E6000626A930748BF49F6404113D400F440709A
:103E7000B0F5407F0ED1206882030BD54FF224416C
:103E800008E0FEF736FE6168C1F38131491C490044
:103E9000B0FBF1F1084610BD041002400070004074
:103EA000400442420010024000127A0000093D0026
:103EB00002030405060708090A0B0C0D0E0F10106B
:103EC0000102000062F30F2262F31F42401810F05B
:103ED000030308D0C91A1FD3DB0748BF00F8012D20
:103EE00028BF20F8022D130030B4144615461039AF
:103EF00028BF20E93C00FAD8490728BF20E90C0078
:103F000048BF40F8042D890028BF20F8022D48BF83
:103F100000F8012D30BC7047C91818BF00F8012DFA
:103F2000CB0728BF00F8012D7047000009010200EF
:103F300002D4294881547047284B02F00F021A44DA
:103F400002F8041C7047264B19684FF6FF02000266
:103F5000114000F4E06008432249084318607047AC
:103F600070B51F4B1C68C4F302230124C3F107057D
:103F7000052D2EBF0F2504FA05F56D1E1E1D072EFB
:103F800034BF0023DB1E2940994004FA03F3BDE847
:103F900070405B1E1A401143C8E7010007D401229C
:103FA00000F01F01104B8A40400943F82020704761
:103FB00010B5401EB0F1807F01D3012010BD0B4C25
:103FC00060600F214FF0FF30FFF7B0FF0021A160CC
:103FD00007202060002010BD00E400E018ED00E0A4
:103FE0000CED00E00000FA0500E100E010E000E068
:103FF0000E4881B0016841F001010160026802F0E1
:10400000010200920099426842F08052426040688A
:1040100000F08050009000980548016821F0E061B0
:1040200041F00071016001B0704700BF18100240FC
:104030000400014038B5040001D1012032BD606A9E
:1040400028B900F0EBF805D00021E16102E0002082
:10405000206160610020A06204F15005687820B9F9
:10406000002129702046FEF7E2FF0220687000F070
:10407000DCF96068A168E26800F4827001F4044130
:104080000843217C02F400621043227D01F002010A
:104090000843A16902F001021043227F01F400717C
:1040A000084394F8201002F038021043A26A01F08D
:1040B00080010843216802F4005210430860A0699F
:1040C0002168000C00F0040048602068C16921F4F8
:1040D0000061C161002068600121697032BD2DE975
:1040E000F84300F07EF9984608BF022000F08D806A
:1040F00001203870FEF72AFD7978012918BF0226C1
:104100004BD1002C18BFB9F1000F7BD0032179707F
:104110007E602C63A5F83490A5F83690AE63AE8728
:10412000EE876E642E64AB68B3F5004F09D1296841
:104130000B6823F040030B6029680C6844F480444A
:104140000C6029680B685C0603D40B6843F04003DD
:104150000B604446E968B1F5006F696821D1002918
:1041600018BFB9F1010F00F051F9804604E0296B46
:104170000A88C26000F02EF9E88E002833D0286843
:1041800081688A07F3D4FEF7E1FCA0EB0800A042A7
:1041900004D314F1010FEFD0032634E0002CEBD14F
:1041A000FAE7002918BFB9F1010F00F023F98046A2
:1041B00006E0296B0A780273286B411C00F00CF9A9
:1041C000E88E80B1286881688A07F2D4FEF7BEFCC9
:1041D000A0EB0800A04203D314F1010FF0D0DBE7FD
:1041E000002CEDD1D8E742462146284600F083F95D
:1041F00008B120207860A86810B900F008F8009A8B
:10420000786800B1012600F00DF8BDE8F283009651
:104210002968CA6800928968009170476068B0F5A3
:10422000827F7047012078700021397030467047D6
:104230002DE9FC4700F0D5F84FF0010808BF022037
:1042400000F0C6809A4687F80080FEF77FFC7B78F6
:10425000012B09D06968B1F5827F02BFA9680029E6
:10426000042B01D00226AEE0002C1CBFB9F1000FD8
:10427000BAF1000F01D10126A5E07B78042B1CBF09
:10428000052179707E60C5F83890A5F83EA0A5F8A4
:104290003CA02C63A5F836A0A5F834A02E646E646B
:1042A00029680C68630603D40C6844F040040C6071
:1042B000E9680A9CB1F5006F696838D1002918BF18
:1042C000BAF1010F00F0A2F88146E88E002804BF81
:1042D000E88F002868D02968886882070BD5E88EA7
:1042E000002818BFB8F1000F05D0286B0288CA60FB
:1042F000B04600F06FF829688868C2070CD5E88FCF
:1043000050B1C868A96B08804FF00108A86B821CE7
:10431000AA63E88F411EE987FEF718FCA0EB0900AD
:10432000A042D2D314F1010FCFD003264BE00029D5
:1043300018BFBAF1010F00F05DF88146E88E002841
:1043400004BFE88F00282FD02968886882070DD520
:10435000E88E002818BFB8F1000F07D0286B02784C
:104360000A73B046286B411C00F036F8296888684B
:10437000C2070CD5E88F50B1C868A96B08704FF020
:104380000108A86B421CAA63E88F411EE987FEF76B
:10439000DDFBA0EB0900A04203D314F1010FCDD047
:1043A000C3E7002CCAD1C0E74A462146284600F0A0
:1043B000A2F818B120200126786004E0A86810B99E
:1043C000FFF725FF009801217970002038703046F2
:1043D000BDE8F687286B811C2963E88E411EE986BB
:1043E0007047054605F150070026387801280C462D
:1043F0009146704709D1296B2B680A781A73296B8B
:104400004A1C2A63E98E4A1EEA86704709D1296B45
:104410002B680A88DA60296B8A1C2A63E98E4A1E97
:10442000EA86704790F8510070472068016821F0D3
:104430004001016070472DE9F843089C05460E468F
:1044400090461F46FEF782FB381A2418FEF77EFBC3
:104450008146324801684901090D6143009105E038
:10446000009800B900240098401E009028688168D8
:104470003140B1420CBF01200020404532D017F13D
:10448000010FF3D0FEF762FBA0EB0900A04201D2BE
:10449000002CE5D12868416821F0E001416068689E
:1044A000B0F5827F08D1A868B0F5004F18BFB0F50D
:1044B000806F01D100F019F8A86AB0F5005F09D14A
:1044C0002868016821F4005101602868026842F4FC
:1044D0000052026005F1500001214170002202707B
:1044E000032000E00020BDE8F2832868016821F085
:1044F0004001016070471CB500920B460446002243
:104500008021FFF798FF08B100F001F816BD606D3B
:1045100040F0200060650320704700004402002046
:10452000F8B5044600270026002C71D004F12405BC
:10453000686820B9AE6028702046FEF7DEFD204690
:1045400000F060FA6968CA065ED401005CD169684F
:1045500021F4885141F0020169606368E269217BBE
:104560001343A268B2F5807F14BF012A4FF480770D
:10457000227D012A43EA41030FD131B9A169491EC5
:10458000490341F400610F4307E0696841F02001ED
:104590006960A96841F00101A96021684A6822F4B4
:1045A000694217434F602268DFF8201497680F4074
:1045B0001F439760A168B1F5807F18BF012902D120
:1045C0002669761E36052168CA6A22F470021643EF
:1045D000CE622468DFF8F813A2680A409A4208D134
:1045E0000023AB60696821F0020141F001016960BC
:1045F000F2BD686820F0020040F010006860A86812
:1046000040F00100A86003E0686840F010006860B6
:104610000120F2BD70B500F025F801D1022070BD77
:1046200000F0FBF801001CD16A68DFF8A81300F065
:10463000E1F80DD10E6816F4702F09D000F0CCF817
:104640006B68DE0446BFAB6823F00603002305E079
:1046500000F0B4F8F4D500F0B8F8F1E700F0D5F8C0
:10466000DFE0A8E0044604F124052878012870471B
:104670002DE9FC410546002000900C46FEF766FA45
:10468000804628688168CA0505F1240707D578683F
:1046900040F02000786000213970012089E04168F5
:1046A000CA051CD4C06A10F4700F18D128680168BC
:1046B0008A0763D414F1010FF8D02CB1FEF746FA43
:1046C000A0EB08008442F1D2286801688A07EDD483
:1046D000786840F004007860002139704CE00220D6
:1046E000FFF784FB2968DFF8F0E20E69DFF8EC22BF
:1046F000DFF8EC3216EA0E0F02BFCE68DFF8E4E214
:1047000016EA0E0F07D10E691E4205BFC968114295
:104710002926142610E00E691E4204BFCB681342FE
:1047200007D00B69DFF8C022134204BFC9681142E9
:1047300001D1542600E0FC26DFF8B0120A68B2FB73
:10474000F0F0464302E00099491C00910098B04205
:1047500014D214F1010FF6D02CB1FEF7F7F9A0EB4B
:1047600008008442EFD20098B042ECD2796841F060
:10477000040179600020387003201AE028686FF087
:10478000120101607A6842F400727A60286800F0D1
:104790005EF804BF287B00280AD1786820F4807076
:1047A00078607868C10403D4786840F001007860CC
:1047B0000020BDE8F6810021297070BD6E6826F4E6
:1047C00080166E605B685E0570476B6823F400536B
:1047D00043F480536B6070476B6843F480136B60E5
:1047E0000E68730505D56E6826F4005646F48056AB
:1047F0006E6070470A4042F480726A602368DFF896
:10480000F021DFF8F01193427047AB6000262E7064
:104810006FF0020325682B60704701202870204646
:104820009CE023689C6804F46024B4F5602F09D1EF
:10483000934203D1096811F4702F03D1996841F4B0
:10484000A00102E0996841F48011996070BD81680F
:1048500001F46021B1F5602F70470068C06C7047AB
:10486000F8B50A46002100F1240300911C78012CC0
:1048700001D10220F2BD01241C701F275468156865
:104880000668072C08D2641E04EB8404D6F834C0F2
:1048900000F05EF8756312E00D2C08D2E41F04EB03
:1048A0008404D6F830C000F053F8356307E00D3CBF
:1048B00004EB8404D6F82CC000F04AF8F562072710
:1048C0001668946805680A2E08D30A3E06EB460669
:1048D000D5F80CC000F036F8EC6006E006EB4606B2
:1048E000D5F810C000F02EF82C611468102C18BFF9
:1048F000112C23D10068404CA0421AD13F480568D2
:104900002C021BD4056845F40005056010681028CA
:1049100014D1364A3A4D1468B4FBF5F50A204543E4
:104920000095009800281EBF0098401E0090F8D106
:1049300004E00121586840F0200058600020187001
:104940000846F2BDB7402CEA0707B4403C43704725
:10495000A7402CEA0707A5403D43704738B50446F9
:104960000020009020688168CA072CD48168244AFE
:1049700041F0010181601D480168B1FBF2F2009233
:1049800002E00098401E009000980028F9D1FEF740
:10499000DDF8054600F05AF815D4FEF7D7F8401BAD
:1049A0000328F7D300F052F8F4D404F124000022D5
:1049B000416841F010014160816841F0010181606E
:1049C0000270012032BD002032BD0000FDF7E1FF82
:1049D000FE0E1FFFFEFDFFFF244992249224490092
:1049E0009224491224499200499224004402002052
:1049F0000028014004240140002401400824014013
:104A000040420F0038B5044620688168CA071BD5AC
:104A10008168490849008160FEF798F8054600F072
:104A200015F811D5FEF792F8401B0328F7D300F0D4
:104A30000DF8F4D5A16A41F01001A162E06A40F0DE
:104A40000100E062012032BD002032BD2068816893
:104A5000C807704738B5040001D1012032BD00F00D
:104A600026F808B900F014F800F017F800F023F861
:104A7000FFE7416100F001F832BD2068C16841F4F0
:104A80000051C1600020686020216970A9707047E2
:104A9000002129702046FEF778BB2420687020682A
:104AA000C16821F40051C160204600F0CCB904F186
:104AB0003C05687870472068016921F490410161E4
:104AC0002068416921F02A01704738B500F13003B0
:104AD0009C7B202C0FD109B1140001D1012032BDE3
:104AE0001C7B012C07D001241C7300251D60BDE830
:104AF000384000F014B9022032BD2068C16821F0AE
:104B00001001C1607047416921F040014161A06B13
:104B100070477CB5044622681168D568536911F066
:104B20000F0007D188065FD5AB065DD52046BDE8EE
:104B300076402DE1D80702D415F4907F54D0C807F1
:104B400005D5EA0503D5206C40F001002064480734
:104B500005D5DA0703D5206C40F0020020648807F1
:104B600005D5DA0703D5206C40F00400206408075F
:104B700007D5AA0601D4D80703D5226C42F0080253
:104B80002264206C00282ED0880604D5A90644BFD4
:104B9000204600F0FDF820684069216C0A0701D426
:104BA00040061BD5204600F0D5F8206841694A062A
:104BB0000FD5FFF7A8FF60B10FF2C9114163A06BD9
:104BC00001F0B7FA00280ED0A06B416BBDE87C4025
:104BD00008472046BDE8764001F00ABB204601F0B8
:104BE00007FB0020206473BD206B012804F13D0306
:104BF00053D1C80651D5EE064FD500210091156856
:104C000000955168009100985169480624D5A16B20
:104C10000868406880B200287AD0A58DA84277DA6B
:104C2000E0858869202813D0D06820F48070D06097
:104C300000F06FF82068416921F0400141612020B7
:104C4000587000212163FFF758FFA06B01F04CFA68
:104C5000A18DE08D091A1AE0A08DE18D411AE08D39
:104C600000281CBF88B2002852D0D06820F4907071
:104C7000D06020684269520852004261202058707A
:104C8000002222632068C26822F01002C26020461F
:104C9000BDE87C4089B201F0ACBA080629D52E06E1
:104CA00027D51878212833D1A068B0F5805F04BFDC
:104CB0002069002808D1206A0188C1F308015160E9
:104CC000206A811C216204E0206A411C2162007874
:104CD0005060E08C401EE08480B2C8B92068C16892
:104CE00021F08001C1602068C16841F04001C160CD
:104CF00073BD48060CD569060AD5D06820F040007F
:104D0000D060202119702046BDE8764001F072BACB
:104D100073BD20684169490849004161704781625B
:104D20008285C28500F13C0100224A6022238B70FB
:104D30000A700168CB6843F48073CB6001684A69EC
:104D400042F001024A610068C16841F02001C1607F
:104D5000002070470168CA6822F49072CA60016836
:104D60004A69520852004A61016B012904D1016865
:104D7000CA6822F01002CA60202180F83E1000228A
:104D800002637047406A0021C185C18401F030BAD6
:104D90001CB590F83E10222953D18168826AB1F582
:104DA000805F0AD1016969B903685968C1F30801D4
:104DB0001180826A911C81620FE0002904BF0169A1
:104DC000002902D10368596803E00168496801F0CD
:104DD0007F011170816A4A1C8262C18D491EC185A2
:104DE00089B261BB0168CA6822F02002CA6001680A
:104DF000CA6822F48072CA6001684A695208520087
:104E00004A61202180F83E10026B012A15D1002151
:104E100001630168CA6822F01002CA600268116862
:104E2000CB0606D5002400941368009352680092C4
:104E30000099818D01F0DDF901E0FEF7EBF900202A
:104E400016BD022016BD10B5044622681169E0683F
:104E500021F4405101431161D3681849A0680B4007
:104E60002169034360690B430343D3605169A0691F
:104E700021F440710143516111498A4202D1FDF789
:104E800038FE01E0FDF72DFE6268192148439200CB
:104E9000B0FBF2F16423B1FBF3F203FB1211090141
:104EA0003231B1FBF3F000F0F00101EB02112268A6
:104EB00000F00F004018906010BD0000F3E9FFFF04
:104EC00000380140C0F3C7517E390EDDC217D1F161
:104ED000200106DD000240F00040C8401044504070
:104EE0007047D04380F000407047002070470000BA
:104EF0004FF0807C1CEB400F94BF1CEB410F05E092
:104F000040EA010C1CEB0C0F01D28142704718BF24
:104F10008842704701F000428B1AA3F16051B1F54D
:104F2000801F0ADBB1F17F6F1FD242EAC102C100CC
:104F300071F1004142EB507070470B15C3F109034A
:104F4000212B10D2890241EA905180020128494167
:104F500041F0004121FA03F0C3F12003994071F1BF
:104F6000004150417047100070476FF0000013EB94
:104F7000103F5CBF000E42EAC05070474FF0807C8B
:104F80001CEB400F94BF1CEB410F05E040EA010C05
:104F90001CEB0C0F01D28842704718BF814270474A
:104FA00040EA010C1CEB0C0F07D0884205D14FEAF8
:104FB000400C1CF1807F98BF80427047C0F3C751FE
:104FC00081B1FF2906D0C110400721F0E04101F175
:104FD0006051704741020CBF40F4E0016FF00041A6
:104FE0000020704700F0004100020AD0B0FA80FCB7
:104FF00000FA0CF001F16051A1EB0C5101EBD02152
:10500000400570472DE9F04D06460F4678004015E3
:10501000401C84B090460AD148004015401C01D184
:10502000090301D1F80F29D1304639464AE127F06A
:105030000041B1F5801F26F000000CD200220029AB
:1050400008BF002800920ED06A463946FCF71AF9CC
:1050500006460F4607E09D4D9D4A3D4002EB11502C
:105060009C4F00902F4326F0000037F0004104BF12
:105070000028994900F02681F80F06D0AFF3008090
:105080004FF0FF306FF000411CE13900304605D58C
:1050900000224FF00043101A63EB01018F4B904A3E
:1050A000002B05D500244FF00045A21A65EB030341
:1050B00099422ADC01DB904227D239464800400D54
:1050C00000F1010211D0002A0FDD40F2FF70824290
:1050D00006DB844907F00043002643EA010711E09C
:1050E0006FF31E5141EA02570CE026F0000037F042
:1050F000004108BF002805D001223946FCF72AF9F3
:1051000006460F460098401E009000207649324621
:105110003B46FCF701FD04460D460020734932462C
:105120003B46FCF7F9FC02460B4620462946FCF7B5
:1051300051FA06460F4632463B46FCF791FB824643
:105140008B466B486B4952465B46FCF789FB6A4AC3
:105150006A4BFCF7E1FC52465B46FCF781FB684A70
:10516000684BFCF7D9FC52465B46FCF779FB664A74
:10517000664BFCF7D1FC52465B46FCF771FB644A78
:10518000644BFCF7C9FC52465B46FCF769FB624A7C
:10519000624BFCF7C1FC52465B46FCF761FB604A80
:1051A000604BFCF7B9FC52465B46FCF759FB0246E4
:1051B0000B4620462946FCF79BF932463B46FCF756
:1051C0004FFB064600980F46FCF780F9B8F1000F38
:1051D00082468B4619D15448544952465B46FCF7E7
:1051E0003FFB32463B46FCF783F922462B46FCF751
:1051F00093FC04460D464FF040404D4952465B46F5
:10520000FCF72EFB22462B465AE036DD00204949AA
:1052100022462B46FCF724FBCDE9020122464648F4
:1052200046492B46FCF71CFBCDE900015246444899
:1052300044495B46FCF714FB04460D4630463946AC
:10524000414A3C4BFCF70CFB02460B4620462946E4
:10525000FCF74EF9DDE90023FCF75EFCDDE90223F3
:10526000FCF75AFC06460F460020384952465B467A
:10527000FCF7F6FA32463B4622E04FF0C040344994
:1052800022462B46FCF7ECFACDE9000122463148D4
:1052900031492B46FCF7E4FA04460D462F482C49C9
:1052A00032463B46FCF7DCFA02460B4620462946CE
:1052B000FCF71EF9DDE90023FCF72EFC52465B46A5
:1052C000FCF72AFC04B0BDE8F08D0000FFFF0F8062
:1052D00002FCFFFF0000E03F0000F0FF9EA0E63F61
:1052E000CD3B7F660000F07F0000F0BF0000F03F84
:1052F000F7DE29BFD8F8C23FF4B3FECC1A99C33FFA
:1053000062CB68D96F46C73FC6C912DAC471CC3FB9
:105310004AE98A942449D23FF75F97999999D93FEE
:10532000BC5555555555E53F9EBC9AF71C7D7F3EB3
:10533000422EE63F7BCBDB3FABA6320EE526553E49
:105340007CC4BC7FDE27743E0EE526151344D33F94
:105350004715F73F44DF5DF80BAE543EFE822B65E8
:1053600001224FE62DE9F04D16461F46044626F071
:10537000000A37F0004008BFBAF1000F8AB00D46AE
:1053800000F056830020DFF8B41622462B4600F0CA
:1053900033FF00F04D83DFF8A81600F02DFF06D193
:1053A00078004015401C02D1390300F041836800A9
:1053B0004015401C00F0588224F0000035F00041F8
:1053C00008BF002800F0508278004015401C00F013
:1053D0004B82BB464FEA4B0151EADA714FEA4A0071
:1053E00008BF00281CD040F23342A2EB51503528B0
:1053F00004DB0AF0000A0BF0004B11E0202805DD69
:1054000020382BFA00F101FA00FB00E002D14FF046
:10541000000A05E00028C4BF2AFA00F101FA00FAE8
:10542000E80F22D0390007D500224FF00043921B2D
:10543000BB41CDE9002301E0CDE9006759460029D1
:10544000504605D500224FF00043101A63EB0101CE
:10545000DDE900238B4208BF824206D0AFF3008013
:105460004FF0FF306FF00041E4E225F00041B1F56C
:10547000801F24F000000CD20022002908BF002861
:10548000029211D002AA2946FBF7FCFE04460D4603
:105490000AE0DFF8B02502EB1150DFF8AC150290FE
:1054A0000D40DFF8A8150D43E80F08BF00223DD0DE
:1054B000594650464B0043EAD0734200002B08BFC8
:1054C000002A25F0004517D040F2344CACEB535283
:1054D000352A04DB00F0000001F000410CE0202A36
:1054E00003DD203AD140914000E001D1002003E0EB
:1054F000002AC4BFD0409040BBF1000F06D5002267
:105500004FF00043B2EB0A0A63EB0B0B002905D501
:1055100000224FF00043101A63EB01018B4508BFD6
:10552000824502D10021059101E0012205920298F5
:10553000012833D120462946DFF81425DFF8143539
:10554000FBF7D8FE2AD248004FF00008400DC246B3
:10555000DFF8E8B400F1010212D0002A10DD40F2B9
:10556000FF70824207DBDFF8F01405F000430024EF
:1055700043EA010533E06FF31E5141EA02552EE084
:1055800024F0000035F0004108BF002827D0012298
:105590002946FBF7DFFE04460D4620E00020DFF839
:1055A000BC1422462B46FCF75BF9DFF8A0B40022BE
:1055B0005B46FCF7B1FAFBF76BFFA0F12008404611
:1055C000FBF784FF0022DFF89834FCF749F900224A
:1055D0005B46FCF7A1FA82468B464FEA4818204604
:1055E000294652465B46FBF783FFCDE90001524650
:1055F0005B4620462946FCF78FFA02460B46DDE95A
:105600000001FBF7E7FFCDE90601DDE90623FCF722
:1056100027F9CDE900015246204629465B46FBF7B3
:1056200067FFDDE9002304460D46DFF83804DFF8A4
:105630003814FCF715F9DFF83424DFF83434FCF7BC
:105640006BFADDE90023FCF70BF9DFF82824DFF81B
:105650002834FCF761FADDE90023FCF701F9DFF8F3
:105660001C24DFF81C34FCF757FADDE90023FCF7B3
:10567000F7F8DFF81024DFF81034FCF74DFADDE915
:105680000023FCF7EDF8DFF80424DFF80434FCF71E
:1056900043FADDE90023FCF7E3F8DFF8F823DFF84D
:1056A000F833FCF739FACDE9080152460020DFF85B
:1056B0008C135B46FBF71CFF0B465A00520D02F1A0
:1056C000010C15D0BCF1000F12DD40F2FF729445C1
:1056D00008DBDFF8842301F000404FF0000A40EAC5
:1056E000020B10E06FF31E5343EA0C5B82460AE0A4
:1056F00020F0000231F000430EBF002A0122FBF728
:1057000029FE82468B46DDE90023DDE90801FCF72E
:10571000A7F822462B46FBF7EBFE52465B46FCF70A
:10572000FBF9DDE90623FCF79BF8DFF800E3FE4414
:105730000EF2FA2EC644CDF804E022462B46FCF7C2
:10574000EBF9044602980D46FBF7C0FEDDF804E0D5
:10575000DEE90023FCF7E0F9CDE906012246DFF897
:105760003C03DFF83C132B46FCF77AF8DDE906230F
:10577000FCF7D2F932463B46FCF772F80022DFF81C
:105780002433FBF7B7FD66D30122DFF81C33FBF7A8
:10579000C9FD5DD9CA0F1ABF0022C44BAB4BFCF741
:1057A000BBF9FBF775FE0022A44BDFF804A3DFF87A
:1057B00004B3CDE903238046CDF8008032463B4652
:1057C00020462946FCF74CF8044601988446D0E967
:1057D00002230D46DCE90401FCF79EF932463B4604
:1057E000FCF73EF852465B46FCF73AF822462B4659
:1057F000FCF792F9CDE90101DDE90645304639466D
:1058000022462B46FCF72CF804460D464046FBF793
:105810005DFE02460B4620462946FBF769FE5246CE
:105820005B46FCF71DF8DDE90123FCF775F9DDE9BE
:10583000032300F0F1FC20F0000631F0004708BF20
:10584000002E08D04A005215521C06D10B0304D179
:105850000020814901E000200021059A002A00F083
:10586000E98081F00041E5E068004015401C04D16A
:10587000290302D020462946DCE078004015401C70
:1058800004D1390302D030463946D3E079000120F3
:105890004915491C7CD03B46590051EADA7B4FEA56
:1058A0004A0104BF0029CDE90067324619D040F211
:1058B0003341A1EB5B51352904DB02F0000203F018
:1058C00000430CE0202903DD2039CB408B4000E071
:1058D00001D1002203E00029C4BFCA408A40CDE9BB
:1058E00000233B0008D500214FF0004B8A1B6BEBD7
:1058F0000303CDE9022301E0CDE90263DDE90023E2
:10590000002B05D500214FF000468A1A66EB0303F1
:10591000DDE902AB9B450CBF92450020DDE9002389
:10592000590041EAD2765100002E08BF002917D055
:1059300040F23441A1EB5651352904DB02F000025C
:1059400003F000430CE0202903DD2039CB408B40DD
:1059500000E001D1002203E00029C4BFCA408A4010
:10596000B0B1DDE90001002905D500264FF0004B5C
:10597000301A6BEB0101002B05D500264FF0004BD0
:10598000B21A6BEB0303994206BF9042002001203C
:1059900069004915491C07D12A0305D1EC0F1BD119
:1059A000FE0F3FD0002045E079004915491C1BD16E
:1059B0003A0319D125F00041B1F5801F24F0000011
:1059C0001DD20022002908BF002800921BD06A4681
:1059D0002946FBF757FC16E0FE0F02D1002822D023
:1059E0001DE0002826D006E0002814BFEC0F00249C
:1059F000FE0F13D17CB100204FF000411AE0114A94
:105A000002EB11500090FE0F009802D1002809DC33
:105A100001E0002806DD002000210BE014B1002089
:105A2000254907E000200C4904E000BFFC0B000002
:105A3000002002490AB0BDE8F08D00000000F03FF0
:105A40000000F0BF02FCFFFFFFFF0F800000E03FFF
:105A5000CD3B7F669EA0E63F0000F07F00005040F7
:105A60000000903FF7DE29BFD8F8C23FF4B3FECC68
:105A70001A99C33F62CB68D96F46C73FC6C912DACD
:105A8000C471CC3F4AE98A942449D23FF75F979981
:105A90009999D93FBC5555555555E53FFE822B6523
:105AA0004715F73F0000E0C00000E0400000E0BF05
:105AB000EF39FAFE422EE63F0000F0FFF8B514463B
:105AC000402CA0B005460E460AD23CB12878317869
:105AD00005F8011B641E06F8010BF7D121B0F0BDDB
