:020000040800F2
:10000000D0060020612E0008712D0008732D000815
:10001000752D0008772D0008792D000800000000DC
:100020000000000000000000000000007B2D000820
:100030007D2D0008000000007F2D0008812D0008A4
:10004000852E0008892E00088D2E0008912E0008AC
:10005000952E0008992E00089D2E0008A12E00085C
:10006000A52E0008A92E0008AD2E0008B12E00080C
:10007000B52E0008B92E0008BD2E0008C12E0008BC
:10008000C52E0008C92E0008CD2E0008D12E00086C
:10009000D52E0008D92E0008DD2E0008E12E00081C
:1000A000E52E0008E92E0008ED2E0008F12E0008CC
:1000B000F52E0008F92E0008FD2E0008012F00087B
:1000C000052F0008092F00080D2F0008112F000828
:1000D000152F0008192F0008892D00081D2F000872
:1000E000212F0008252F0008292F00082DE9FC47A3
:1000F0000400002C01D10120F6E12078C0076BD567
:10010000DFF80406016811F00C01042907D001682A
:1001100011F00C0108290CD10068C00309D5DFF8E3
:10012000E4050068800357D56068002854D1012099
:10013000DAE16068B0F5803F06D1DFF8C8050168F4
:1001400051F48031016026E0606800280AD1DFF8B0
:10015000B405016831F480310160016831F4802117
:10016000016018E06068B0F5A02F0AD1DFF89405AF
:10017000016851F480210160016851F4803101600F
:1001800009E0DFF88005016831F480310160016821
:1001900031F480210160606800280ED000F0D6FAAA
:1001A0000500DFF860050068800315D400F0CEFA82
:1001B000401B6528F5D3032096E100F0C7FA05003F
:1001C000DFF840050068800306D500F0BFFA401B49
:1001D0006528F5D3032087E12078800750D5DFF824
:1001E0002805016811F00C0F07D0016811F00C010F
:1001F000082914D10068C00311D4DFF8080501688C
:10020000890704D52169012901D001206CE1016829
:1002100031F0F801626951EAC201016030E0206901
:1002200000281AD00120DFF8F414086000F08EFADC
:100230000500DFF8D0040168890706D400F086FACB
:10024000401B0328F5D303204EE1016831F0F8018B
:10025000626951EAC201016012E00020DFF8BC14BB
:10026000086000F073FA0500DFF898040068800762
:1002700006D500F06BFA401B0328F5D3032033E1C9
:10028000207800072CD5A069002816D00120DFF8BF
:100290009014086000F05AFA0500DFF87C0400684A
:1002A000800706D400F052FA401B0328F5D3032040
:1002B0001AE1012000F012FA12E00020DFF86014C9
:1002C000086000F043FA0500DFF84C04006880077E
:1002D00006D500F03BFA401B0328F5D3032003E1C9
:1002E0002078400740F18E800027DFF83884D8F866
:1002F0000000C0000DD4D8F8000050F08050C8F8BD
:100300000000D8F8000010F0805000900098012004
:100310000700DFF81494D9F80000C00513D4D9F809
:10032000000050F48070C9F8000000F00FFA0500DA
:10033000D9F80000C00506D400F008FA401B652873
:10034000F6D30320D0E0E068012806D1DFF8DC0313
:10035000016851F00101016025E0E06800280AD140
:10036000DFF8C8030168490849000160016831F0FD
:100370000401016017E0E06805280AD1DFF8AC034A
:10038000016851F004010160016851F00101016050
:1003900009E0DFF898030168490849000160016835
:1003A00031F004010160E068002810D000F0CEF9BF
:1003B0000500DFF878030068800719D400F0C6F95B
:1003C000401B41F289318842F3D303208CE000F0D6
:1003D000BDF90500DFF854030068800708D500F078
:1003E000B5F9401B41F289318842F3D303207BE009
:1003F0003800C0B2012805D1D8F8000030F0805094
:10040000C8F80000E06900286DD0DFF8FC82D8F859
:10041000000010F00C00082851D0E06902283BD100
:10042000DFF80CA30020CAF8000000F08FF90700E5
:10043000DFF8D092D9F80000800106D500F086F9E7
:10044000C01B0328F4D303204EE0206AB0F5803FA0
:1004500007D1D8F8001031F40031A0680143C8F882
:100460000010D8F8001031F47411206A0143606A5A
:100470000143C8F800100120CAF8000000F066F936
:100480000500D9F8000080012DD400F05FF9401B71
:100490000328F6D3032027E00020DFF89412086039
:1004A00000F054F90500DFF85C02006880011AD5FD
:1004B00000F04CF9401B0328F5D3032014E0E06959
:1004C000012801D101200FE0D8F80000060016F441
:1004D0008030216A884204D116F47010616A884223
:1004E00001D0012000E00020BDE8F6872DE9F041B1
:1004F00004000D00002C01D101209CE0DFF83472D3
:10050000386810F00700A8420BD23868C008C00055
:1005100028433860386810F00700A84201D0012055
:1005200089E02078800717D52078400705D5DFF8C7
:10053000D801016851F4E06101602078000704D51A
:100540007148016851F4605101606F490A6832F0E6
:10055000F002A06802430A602078C00735D56068C1
:10056000012805D167480068800310D4012062E0AB
:100570006068022805D163480068800107D4012023
:1005800059E060480068800701D4012053E0DFF89B
:100590007881D8F800108908890060680143C8F89C
:1005A000001000F0D3F80600D8F8000010F00C009E
:1005B0006168B0EB810F08D000F0C8F8801B41F2F1
:1005C00089318842F0D3032035E0386810F0070005
:1005D00085420BD23868C008C000284338603868AC
:1005E00010F00700A84201D0012024E02078400745
:1005F00006D545490A6832F4E062E06802430A60C1
:100600002078000707D54048016831F4605122691D
:1006100051EAC201016000F010F847493A4A1268F5
:10062000C2F30312895CC840394908603948006840
:1006300000F092F80020BDE8F081F0B585B001A887
:100640003E49102200F0AEF83D480088ADF80000A9
:10065000002000210022002300252B4E346814F0D6
:100660000C07042F02D0082F02D01BE027481AE005
:1006700001A8C4F38347C05D0300E0030CD56846BE
:100680003668C6F34046805D0100204800FB03F059
:10069000B0FBF1F0020003E02A4800FB03F0020087
:1006A000100000E0194805B0F0BD19480068704717
:1006B00080B5FFF7FAFF2449134A1268C2F30222F9
:1006C000895CC84002BD80B5FFF7EFFF1E490E4AA6
:1006D0001268C2F3C222895CC84002BD81B00C49D5
:1006E0000968C9084FF47A72B1FBF2F101FB00F11D
:1006F000009100BF00994A1E00920029F9D101B073
:1007000070470000001002400410024000127A00FE
:100710006C01002000000020241002400000424232
:10072000800442421C100240007000402010024031
:100730006000424200200240502E0008402E000877
:100740005E10000800093D007C2E0008014800688A
:10075000704700BFC802002010B504004FF47A7043
:100760000D490978B0FBF1F00C490968B1FBF0F0D4
:1007700000F00BF9002801D001200CE0102C09D268
:10078000002221005FF0FF3000F0E3F8044804602D
:10079000002000E0012010BD700100206C0100204D
:1007A00000000020103A07D330B4B1E83810103AF6
:1007B000A0E83810F9D230BC530724BFB1E80810C4
:1007C000A0E8081044BF51F8043B40F8043BD207AE
:1007D00024BF31F8022B20F8022B44BF0B780370A2
:1007E0007047121F17D35B0009D151F8043B20F862
:1007F000023B1B0C121F20F8023BF6D20BE051F813
:10080000043B00F8013B1B0A20F8023B1B0C121FA3
:1008100000F8013BF3D238BF121D521E24BF11F85D
:10082000013B00F8013BF8D8704730B4002513E0D5
:1008300050F8042BD30744BFA9F101039A18091FEC
:10084000042942F8045BFAD213468C0744BF158092
:100850009B1CC90748BF1D7050F8041B0029E7D135
:1008600030BC704710B410F007034B4C22684FF6B1
:10087000FF010A40494951EA03210A43226010BCA2
:10088000704745480068C0F302207047010049B234
:10089000002909D4012210F01F018A4040490300B9
:1008A0005BB25B0941F82320704710B4020052B2DA
:1008B000002A05D40A013B4B040064B21A5508E033
:1008C0000A01394B040064B214F00F04234403F806
:1008D000042C10BC704770B4030013F00704D4F16B
:1008E0000700052801D3042001E0D4F10700251DED
:1008F000072D01D2002500E0E51E012616FA00F0C2
:10090000401E0140A94016FA05F56D1E2A4011430C
:10091000080070BC704710B50400601EB0F1807F05
:1009200001D301200EE0601E204908600F215FF016
:10093000FF30FFF7BAFF00201D49086007201D495E
:100940000860002010BD10B504002000FFF78AFFEA
:1009500010BD2DE9F04104000D0016000027FFF73F
:1009600090FF8046320029004046FFF7B4FF0100A7
:10097000200040B2FFF799FFBDE8F08110B50400F8
:10098000200040B2FFF782FF10BD10B50400200028
:10099000FFF7C1FF10BD00000CED00E00000FA05FC
:1009A00000E100E000E400E018ED00E014E000E009
:1009B00018E000E010E000E010B50400002C01D1C8
:1009C000012033E0A0690028FFD194F83D00002801
:1009D00005D1002084F83C00200000F0F5FA242026
:1009E00084F83D002068C06830F400502168C86079
:1009F000200000F05FFA2068006930F49040216820
:100A000008612068406930F02A0021684861206848
:100A1000C06850F400502168C86000202064202085
:100A200084F83D00202084F83E00002010BD70B501
:100A300005000C00160095F83E00202819D1002C66
:100A400003D0300080B2002801D1012012E095F8D7
:100A50003C00012801D102200CE0012085F83C0077
:100A600000202863320092B22100280000F024F90F
:100A700000E0022070BD2DE9FC47060030680768E1
:100A80003068D0F80C803068D0F814900020002531
:100A900017F00F04002C08D1B80606D55FEA88606D
:100AA00003D5300000F095F904E1002C77D05FEA1F
:100AB000C97002D418F4907F71D017F00100C0B251
:100AC000002806D05FEAC85003D5306C50F0010012
:100AD0003064780708D519F00100C0B2002803D0AF
:100AE000306C50F002003064B80708D519F00100EE
:100AF000C0B2002803D0306C50F0040030643807D6
:100B00000BD55FEA886004D419F00100C0B2002858
:100B100003D0306C50F008003064306C00283DD0B9
:100B2000B80605D55FEA886002D5300000F051F9BB
:100B300030684069800910F001000500306C000742
:100B400001D4002D25D0300000F0D8F8306840697D
:100B500040061AD53068406930F04000316848617D
:100B6000B06B00280DD00FF2CD10B16B4863B06BA5
:100B700000F09DFA002811D0B06BB16B496B88472B
:100B80000CE0300000F0FCFA08E0300000F0F8FA69
:100B900004E0300000F0F4FA002030648AE0306BAA
:100BA000012875D1F80673D55FEAC86070D50020BA
:100BB00000903068006800903068406800900098AD
:100BC0003068406940063AD5B06B0068D0F804A0A0
:100BD000504680B2002831D05046B18D80B2884254
:100BE0002CD2A6F82EA0B06B806920281FD03068C8
:100BF000C06830F480703168C8603068406940086F
:100C00004000316848613068406930F04000316828
:100C10004861202086F83E00002030633068C068BC
:100C200030F010003168C860B06B00F019FAB18D77
:100C3000F08D091A89B2300000F0A3FA3AE0B08DC5
:100C4000B6F82EA0B0EB0A0AF08D00281FD050464F
:100C500080B200281BD03068C06830F490703168D2
:100C6000C860306840694008400031684861202011
:100C700086F83E00002030633068C06830F0100015
:100C80003168C860514689B2300000F07AFA11E04C
:100C9000380606D55FEA086003D5300000F056F844
:100CA00008E0780606D55FEA486003D5300000F01A
:100CB00080F8FFE7BDE8F38710B4030099629A85D6
:100CC000DA8500201864222083F83E00002083F893
:100CD0003C001868C06850F480701C68E0601868B8
:100CE000406950F001001C6860611868C06850F0ED
:100CF00020001C68E060002010BC70470168C968D3
:100D000031F490710268D16001684969490849006D
:100D100002685161016B012905D10168C96831F090
:100D200010010268D160202180F83E10002101638B
:100D30007047000038B50400656A0020E88500208F
:100D4000E884280000F01CFA31BD0000010091F891
:100D50003D0021282BD18868B0F5805F0DD108694E
:100D600000280AD1086A02001088C005C00D0B686F
:100D70005860086A801C086205E0086A431C0B6220
:100D800000780B685860C88C401EC88480B2002868
:100D90000BD10868C06830F080000B68D860086824
:100DA000C06850F040000B68D860002000E00220CE
:100DB000704710B504002068C06830F0400021681A
:100DC000C860202084F83D00200000F0DBF90020FE
:100DD00010BD7CB5040094F83E00222868D1A068BC
:100DE000B0F5805F0DD1206900280AD10025A66AE0
:100DF00020684068C005C00D3080A06A801CA062D9
:100E000017E0A56A0026A068B0F5805F05D0A0684D
:100E1000002806D12069002803D120684068287086
:100E200004E02068406810F07F002870A06A401C31
:100E3000A062E08D401EE08580B2002836D1206897
:100E4000C06830F020002168C8602068C06830F4B5
:100E500080702168C86020684069400840002168AF
:100E60004861202084F83E00206B012819D1002021
:100E700020632068C06830F010002168C8602068D6
:100E80000068C00608D50020009020680068009027
:100E90002068406800900098A18D200000F071F952
:100EA00002E0200000F0DAF8002002E0002000E07C
:100EB000022076BDF8B504002068016931F4405184
:100EC000E068014320680161A56820690543606905
:100ED00005432068C1682D48014029432068C1604E
:100EE0002068416931F44071A06901432068416183
:100EF00020682749884202D1FFF7E5FB01E0FFF7B0
:100F0000D7FB6421192202FB00F36668B600B3FB2D
:100F1000F6F36426B3FBF6F302FB00F66768BF0046
:100F2000B6FBF7F602FB00F7D4F804C05FEA8C0CBE
:100F3000B7FBFCF75FF0640CB7FBFCF701FB17662F
:100F4000360132366427B6FBF7F616F0F00616EBDC
:100F5000031602FB00F36768BF00B3FBF7F302FB65
:100F600000F26768BF00B2FBF7F26427B2FBF7F24A
:100F700001FB1231090132316422B1FBF2F111F0AF
:100F80000F018E1921688E60F1BD0000F3E9FFFFAB
:100F90000038014080B52C482C4901604FF41651AF
:100FA0004160002181600021C160002101610C21AC
:100FB0004161002181610021C161FFF7FDFC002832
:100FC00001D000F063F901BD30B585B004001022F6
:100FD0000021684600F05CF920681C49884230D145
:100FE0001B48016851F400310160006810F40030C2
:100FF000049004981748016851F0040101600068EA
:1010000010F0040004900498042000900220019045
:1010100003200390104D6946280000F043F9082092
:10102000009000200190002002906946280000F006
:1010300039F9002200212620FFF78BFC2620FFF73C
:101040009DFC05B030BD000020020020004400409F
:101050001C100240181002400008014070470102B5
:101060000100002291F82100022806D004208863A4
:10107000002081F82000012018E00868006830F0A6
:101080000E000B68186008680068400840000B6894
:1010900018600123086C8340C86B4360012081F80D
:1010A0002100002081F820001000C0B2704738B540
:1010B0000400002594F82100022804D00420A06335
:1010C000012005004AE02068006830F00E00216829
:1010D00008602068006840084000216808602068B7
:1010E000DFF88010884201D1012028E02068DFF875
:1010F0007810884201D1102021E02068DFF86C10C0
:10110000884202D14FF4807019E02068DFF8601047
:10111000884202D14FF4805011E02068DFF854106B
:10112000884202D15FF4803009E02068DFF848107F
:10113000884202D15FF4801001E05FF08070DFF838
:101140003C100860012084F82100002084F8200071
:10115000606B002802D02000616B88472800C0B275
:1011600032BD0000080002401C0002403000024076
:1011700044000240580002406C000240040002405B
:101180007047704770470000E0B500F0D3F900F0F9
:101190002EF800F0E1F900F053FA00F0B7FA00F091
:1011A00063FBFFF7F7FE00F0DDFA00F0BBFB4FF446
:1011B0007A7000F0C3FB012001900120009007230A
:1011C00007223048002100F0C9FC2F4890F8500158
:1011D000012805D14FF4FA61102000F09DFD03E0D5
:1011E0004FF4FA6000F0D5FD00F032FEFCE718B5D0
:1011F00093B02821002209AC200000F03DFE14210C
:1012000000226C46200000F037FE1021002205ACC1
:10121000200000F031FE012009905FF480300A9038
:1012200000210B9101210D910221109111905FF489
:10123000E010129009A8FEF759FF002801D000F035
:1012400025F80F20009002200190002002904FF41A
:10125000806003900020049002216846FFF746F961
:10126000002801D000F012F8022005904FF4004051
:10127000079005A800F034FE002801D000F006F821
:1012800014B010BD809AF4360400002072B6FEE758
:1012900010B5044610460A460146204600F0ECFD13
:1012A000204610BD2DE9F84703005FF0000E5FF007
:1012B0000008086830FA0EF0002800F000810120D4
:1012C00010FA0EF00400086820400500A54240F026
:1012D000F3804868002831D0012820D0022825D08A
:1012E00003283CD011281DD0122823D0DFF804C2D7
:1012F000604523D0DFF800C260451FD0DFF8FCC195
:1013000060451BD0DFF8F8C1604517D0DFF8F4C1A5
:10131000604513D0DFF8F0C160450FD022E0C86807
:1013200080461FE0C868001D80461BE0C868083082
:10133000804617E0C8680C30804613E088680028B3
:1013400002D10420804609E08868012803D10820E2
:1013500080461C6102E0082080465C6102E00020BB
:101360008046FFE7B5F5807F01D21E0000E01E1D1C
:10137000B5F5807F02D25FEA8E0702E0BEF1080772
:10138000BF005FF00F09D6F800C019FA07F03CEA79
:10139000000C18FA07F050EA0C0CC6F800C04868B8
:1013A000C00040F189805948D0F800C05CF0010CC1
:1013B000C0F800C0006810F0010000900098DFF84D
:1013C00050C1704680085CF820A01EF00300C0B237
:1013D000800019FA00F93AEA090A4E48834202D11C
:1013E0005FF0000913E04C48834202D15FF001092D
:1013F0000DE04A48834202D15FF0020907E0484805
:10140000834202D15FF0030901E05FF004091EF09E
:101410000300C0B2800019FA00F9524659EA0202EC
:10142000704680084CF820204868C00307D53D4826
:10143000D0F800C055EA0C0CC0F800C006E03948EE
:10144000D0F800C03CEA050CC0F800C04868800332
:1014500007D53548D0F800C055EA0C0CC0F800C0DC
:1014600006E03148D0F800C03CEA050CC0F800C0E6
:101470004868C00207D52D48D0F800C055EA0C0CCA
:10148000C0F800C006E02948D0F800C03CEA050CCE
:10149000C0F800C04868800207D52548D0F800C0D1
:1014A00055EA0C0CC0F800C006E02148D0F800C096
:1014B0003CEA050CC0F800C01EF1010EF9E6BDE8DB
:1014C000F187020090680B009BB2184201D0012006
:1014D00000E00020C0B270471300DBB2002B03D045
:1014E0000B009BB2036103E00B009BB21B04036182
:1014F00070470000000011100000121000002110C1
:1015000000002210000031100000321018100240BC
:101510000800014000080140000C0140001001409B
:10152000001401400004014004040140080401408B
:101530000C04014080B50748016851F010010160BA
:101540000320FFF700FA0F20FFF706F900F05EFD19
:10155000002002BD0020024030B585B010220021DD
:101560006846FFF795FE3348016851F0200101609D
:10157000016811F0200104910499016851F00401FF
:101580000160016811F0040104910499016851F0AF
:1015900008010160006810F0080004900498264CCF
:1015A00000224FF4A1712000FFF796FF234D012286
:1015B0004FF480512800FFF78FFF4FF4A170009087
:1015C0000120019000200290022003906946200033
:1015D000FFF768FE4FF4207000900020019000207B
:1015E000029069462000FFF75DFE06200090002073
:1015F00001900020029069462800FFF753FE4FF447
:1016000000600090002001900120029069462800AF
:10161000FFF748FE4FF48050009001200190002019
:1016200002900220039069462800FFF73BFE05B0B8
:1016300030BD00BF1810024000080140000C0140FE
:1016400080B52D482D4901604FF482714160002121
:1016500081600021C16000210161002141614FF4DE
:10166000007181610021C16100210162002141629C
:10167000002181620A21C16200F0ECFC002801D047
:10168000FFF704FE01BD30B585B004001022002133
:101690006846FFF7FDFD2068184988422AD118489E
:1016A000016851F480410160006810F480400490AA
:1016B00004981448016851F008010160006810F0B6
:1016C0000800049004984FF42040009002200190FC
:1016D000032003900C4D69462800FFF7E3FD4FF40B
:1016E0008040009000200190002002906946280070
:1016F000FFF7D8FD05B030BD740100200038004070
:101700001C10024018100240000C01401FB50C22B2
:1017100000216846FFF7BCFD4D4C4E48206000207C
:10172000A06000202073002020755FF46020E0613D
:101730000020606001202061200000F06DFF002883
:1017400001D0FFF7A3FD00200090012001900020B0
:1017500002906946200001F001F8002801D0FFF74F
:1017600095FD1FBD1FB50C2200216846FFF790FDB7
:10177000394C3A4820600020A060002020730020EF
:1017800020755FF46020E06100206060012020612E
:10179000200000F041FF002801D0FFF777FD042072
:1017A000009001200190002002906946200000F086
:1017B000D5FF002801D0FFF769FD1FBD18B585B022
:1017C00004001022002101A8FFF762FD20682149D2
:1017D00088421BD12248016851F400710160016800
:1017E00011F4007100910099016851F00401016049
:1017F000006810F004000090009801200190032080
:10180000029001A91748FFF74DFD1EE0206813491B
:1018100088421AD11248016851F480610160016860
:1018200011F4806100910099016851F00401016098
:10183000006810F004000090009810200190032030
:10184000029001A90748FFF72DFD06B010BD00006A
:10185000640200200024014094020020002801407E
:10186000181002400008014080B527482749016050
:1018700027494160002181600021C1604FF480410F
:10188000016100214161002181610021C1610021CC
:10189000016201F041F8002801D0FFF7F7FC01BD1B
:1018A00018B585B004001022002101A8FFF7F0FC54
:1018B00020681649884225D11648016851F0080170
:1018C0000160006810F00800009000984FF440702C
:1018D0000190122002900320049001A90E48FFF706
:1018E000E1FC0E49086850F0E06050F0020008602A
:1018F0000B48016851F400110160006810F40010F9
:101900000090009806B010BDCC01002000540040AB
:10191000A086010018100240000C014004000140A4
:101920001C10024080B5012202490348FFF77FF8EE
:1019300001BD0000CC0200202002002070B5040090
:10194000FEF704FF0500260016F1010F02D004483F
:1019500000788619FEF7FAFE401BB042FAD370BD3C
:101960007001002031B582B000208DF80500002004
:101970008DF80400DFF8C44400224FF480512000A9
:10198000FFF7AAFDDFF8B8544FF47A73012202A9D9
:10199000280000F0C1FB280000F0B7FD0128FAD1B3
:1019A0004FF47A700090012301AA0DF1050128007F
:1019B00000F08DFC280000F0A8FD0128FAD10122DA
:1019C0004FF480512000FFF787FD9DF804003EBDD5
:1019D00033B581B09DF8040050F080008DF804000C
:1019E000DFF8584400224FF480512000FFF774FDC7
:1019F000DFF84C544FF47A73012201A9280000F05B
:101A00008BFB280000F081FD0128FAD14FF47A7396
:101A1000012202A9280000F07FFB280000F075FDDC
:101A20000128FAD101224FF480512000FFF754FD24
:101A300037BD2DE9F84F04000D000026002794F86B
:101A4000018094F8029094F803A04046C0B2FFF7DA
:101A500089FF4946C9B211FA0AF188438DF800009E
:101A60009DF800B02800C0B210FA0AF050EA0B0B43
:101A70005946C9B24046C0B2FFF7AAFF2570BDE87B
:101A8000F18F38B504000D002900C9B22000C0B2A2
:101A9000FFF79EFF31BD2DE9F14181B00C0015002B
:101AA0009DF8040050F080008DF804002800C0B2BA
:101AB000022835DBDFF8846300224FF480513000C8
:101AC000FFF70AFDDFF878734FF47A73012201A95A
:101AD000380000F021FB380000F017FD0128FAD192
:101AE0005FF0000840462900C0B2C9B2884211D256
:101AF0004FF47A7301224046C0B204EB0001380073
:101B000000F00AFB380000F000FD0128FAD118F1BE
:101B10000108E7E701224FF480513000FFF7DCFCB9
:101B2000BDE8F3812DE9F84304000025002667781D
:101B300094F8029094F803803800C0B2FFF712FFC7
:101B400001004846C0B210FA08F001400800C0B2D7
:101B500050FA08F02070C0B2BDE8F2832DE9FE4FC4
:101B600080468946DDF830B0DDF834A0DFF8C842A1
:101B700080212000FFF7A5FC002805D10120DFF817
:101B8000B41281F8500104E00020DFF8A81281F8B7
:101B9000500101224FF48051DFF8A002FFF79CFCB6
:101BA00001224FF480712000FFF796FCDFF8846279
:101BB000DFF8907200213800FFF73BFF0F20FFF79E
:101BC000BDFE0121301DFFF734FF002116F10C008E
:101BD000FFF72FFF40464946C90441EA5031C0048F
:101BE000DFF86422002300F08DFF04000D002000C8
:101BF000000C8DF80000200080B2000A8DF8010072
:101C000020008DF80200032269460620FFF743FFFB
:101C1000342116F58C70FFF70CFF012116F120001E
:101C2000FFF707FF072116F12400FFF702FF0F213E
:101C300016F12800FFF7FDFE002116F13000FFF736
:101C4000F8FE0B2116F13400FFF7F3FE012116F127
:101C50003800FFF7EEFE0B2116F14000FFF7E9FE1A
:101C60009DF8081016F1D800FFF7E3FE5946C9B2F7
:101C700016F1DC00FFF7DDFE002116F1E000FFF7B2
:101C8000D8FE9DF8041016F1E400FFF7D2FE51468D
:101C9000C9B216F1EC00FFF7CCFE002116F58870F2
:101CA000FFF7C7FE012116F58A70FFF7C2FE082173
:101CB00016F1F400FFF7BDFE012116F59670FFF74F
:101CC000B8FE96F8500101280ED1872116F59C70B8
:101CD000FFF7AFFE012116F58E70FFF7AAFEF72180
:101CE0001120FFF7CEFE11E096F8500100280DD12B
:101CF000842116F59C70FFF79CFE002116F58E706E
:101D0000FFF797FE3F211120FFF7BBFE01213800AE
:101D1000FFF78FFEBDE8F78F2DE9FC4705000C00AB
:101D20005FF0000A0026FF211220FFF7AAFEDFF86D
:101D3000049119F580782900C9B24046FFF779FE71
:101D400019F14800FFF7EEFE07003900C9B219F19A
:101D50004400FFF76EFE4046FFF7E4FE0600300049
:101D60002900C0B2C9B2884201D101200FE0641E2F
:101D7000002CF0D100F043F80120019001200090E8
:101D80000723072231480021FFF7E8FE0020BDE8C5
:101D9000F687FEB504000026FF211220FFF771FE32
:101DA000244D15F14C00FFF7BDFE07003900C9B204
:101DB00015F14400FFF73DFE052115F11000FFF776
:101DC00038FE15F1B400FFF7ADFE012801D1012066
:101DD00014E0641E002C0DD100F011F801200190D8
:101DE000012000900723072218480021FFF7B6FEC4
:101DF000002003E00120FFF7A1FDE2E7FEBD10B5E2
:101E000001224FF480510D48FFF766FB0A4C002277
:101E10004FF480712000FFF75FFB0120FFF78EFD7C
:101E200001224FF480712000FFF756FB6420FFF77A
:101E300085FD10BD0400002000080140000C014099
:101E400074010020140000200048E8018050DE19D1
:101E500080B54FF400610748FFF733FB002803D13A
:101E600001200349887002E000200149887001BD0B
:101E7000C4020020000C014062F30F2262F31F42F3
:101E8000401810F0030308D0C91A1FD3DB0748BF5E
:101E900000F8012D28BF20F8022D130030B414469D
:101EA0001546103928BF20E93C00FAD8490728BF59
:101EB00020E90C0048BF40F8042D890028BF20F815
:101EC000022D48BF00F8012D30BC7047C91818BF5B
:101ED00000F8012DCB0728BF00F8012D7047000046
:101EE0002DE9F8430500002600242878C0076CD5AA
:101EF0000027DFF80481D8F80000C0000DD4D8F81E
:101F0000000050F08050C8F80000D8F8000010F031
:101F100080500090009801200700DFF8E090D9F889
:101F20000000C00513D4D9F8000050F48070C9F83F
:101F30000000FEF70BFC0600D9F80000C00506D42F
:101F4000FEF704FC801B6528F6D3032052E0DFF87F
:101F5000B090D9F8000010F440700400002C22D09A
:101F6000686810F4407084421DD0D9F8000030F445
:101F70004070040023480121016000210160C9F87C
:101F80000040E0070FD5FEF7E1FB0600D9F800009E
:101F9000800708D4FEF7DAFB801B41F289318842C2
:101FA000F4D3032026E0D9F8001031F440716868BA
:101FB0000143C9F800103800C0B2012805D1D8F893
:101FC000000030F08050C8F800002878800706D55F
:101FD0000D490A6832F44042A86802430A60287832
:101FE000C00606D508490A6832F48002E868024350
:101FF0000A600020BDE8F2831C100240007000401F
:1020000020100240400442420410024081B00E48B9
:10201000016851F001010160006810F001000090BA
:1020200000980A48016851F080510160006810F082
:102030008050009000980649086830F0E06050F049
:102040000070086001B07047181002401C10024078
:102050000400014010B50400002C01D101205AE019
:10206000606A002806D16068B0F5827F06D0002043
:10207000E06103E000202061002060610020A06298
:1020800094F85100002805D1002084F85000200069
:10209000FFF7F9FA022084F851002068006830F058
:1020A000400021680860606810F48270A16811F433
:1020B00004410843E16811F400610843217C11F0F8
:1020C00002010843217D11F001010843A16911F4C7
:1020D00000710843217F11F03801084394F8201063
:1020E00011F080010843A16A11F4005108432168EE
:1020F0000860A069000C10F00400216848602068A6
:10210000C06930F400602168C8610020606501206A
:1021100084F85100002010BD2DE9FC4706000D0099
:1021200017001C005FF0000896F85000012801D14C
:102130000220CAE0012086F85000FEF707FB814626
:10214000BA4696F85100012802D002208046B4E039
:10215000002D03D0380080B2002802D10120804633
:10216000ABE0032086F85100002070653563B78628
:10217000F7860020B0630020B0870020F0870020A1
:10218000706400203064B068B0F5004F0BD1306847
:10219000006830F04000316808603068006850F432
:1021A00080403168086030680068400605D43068B7
:1021B000006850F0400031680860F068B0F5006FCA
:1021C00030D17068002803D0504680B2012809D170
:1021D000306B00883168C860306B801C3063F08ED3
:1021E000401EF086F08E00284DD030688068800751
:1021F0000AD5306B00883168C860306B801C306352
:10220000F08E401EF086EDE7FEF7A0FAB0EB090075
:10221000A04202D314F1010F01D1002CE2D103201E
:1022200080464AE07068002803D0504680B20128FA
:1022300009D1306B007831680873306B401C306313
:10224000F08E401EF086F08E00281CD0306880682A
:1022500080070AD5306B007831680873306B401CFA
:102260003063F08E401EF086EDE7FEF76FFAB0EBBC
:102270000900A04202D314F1010F01D1002CE2D1D8
:102280000320804619E04A462100300000F0ADF9F5
:10229000002801D020207065B068002808D10020F7
:1022A00000903068C06800903068806800900098A6
:1022B000706D002801D001208046012086F8510071
:1022C000002086F850004046C0B2BDE8F6872DE9F0
:1022D000FE4F07000D00160098460C9C5FF00109A8
:1022E0005FF0000A97F85000012801D102200AE1AE
:1022F000012087F85000FEF729FA834697F851002D
:102300008DF8000078680290ADF802809DF800001A
:1023100001280DD00298B0F5827F06D1B868002858
:1023200003D19DF80000042802D002208246E2E09A
:10233000002D05D0002E03D0404680B2002802D1E7
:1023400001208246D7E097F85100042802D00520EA
:1023500087F8510000207865BE63A7F83E80A7F893
:102360003C803D63A7F83680A7F8348000203864AD
:102370000020786438680068400605D43868006832
:1023800050F0400039680860F868B0F5006F4CD133
:102390007868002803D0BDF80200012809D1386B05
:1023A00000883968C860386B801C3863F88E401E1E
:1023B000F886F88E002803D1F88F002800F083807B
:1023C00038688068800711D5F88E00280ED0B9F1E2
:1023D000010F0BD1386B00883968C860386B801CDE
:1023E0003863F88E401EF886002081463868806881
:1023F000C0070ED5F88F00280BD03868C068B96BBD
:102400000880B86B801CB863F88F401EF8870120E5
:102410008146FEF79BF9B0EB0B00A042C9D314F143
:10242000010FC6D00320824665E07868002803D0FB
:10243000BDF80200012809D1386B007839680873AB
:10244000386B401C3863F88E401EF886F88E0028E2
:1024500002D1F88F002836D038688068800711D5FF
:10246000F88E00280ED0B9F1010F0BD1386B00782F
:1024700039680873386B401C3863F88E401EF88644
:102480000020814638688068C0070ED5F88F002884
:102490000BD03868C068B96B0870B86B401CB86363
:1024A000F88F401EF88701208146FEF74FF9B0EB08
:1024B0000B00A04202D314F1010F01D1002CC5D1B1
:1024C0000320824617E05A462100380000F08DF8BC
:1024D000002804D001208246202078650BE0B868EF
:1024E000002808D1002001903868C0680190386841
:1024F000806801900198012087F85100002087F83A
:1025000050005046C0B2BDE8FE8F90F851007047B1
:102510002DE9FC4705000E0017009846DDF82890CD
:10252000FEF714F90400B8EB040419EB0404FEF7F9
:102530000DF98246DFF8DC0000684001000D00FB69
:1025400004F00090286880683040B04201D101203A
:1025500000E000203900C9B2884243D018F1010FD1
:10256000F0D0FEF7F3F8B0EB0A00A04201D2002C45
:102570002FD12868406830F0E0002968486068681A
:10258000B0F5827F0DD1A868B0F5004F03D0A868E0
:10259000B0F5806F05D12868006830F040002968E8
:1025A0000860A86AB0F5005F0BD12868006830F4B5
:1025B0000050296808602868006850F400502968B5
:1025C0000860012085F85100002085F850000320A4
:1025D00009E00098002801D1002004000098401E66
:1025E0000090AFE70020BDE8F6877CB504000D0041
:1025F000160000962B00002280212000FFF788FFA4
:10260000002805D0606D50F020006065032000E0D8
:10261000002076BD6C0100202DE9F04104005FF040
:102620000008002500260027002C01D1012093E09E
:10263000A068002801D0207D0028A06A002807D1CA
:102640000020E062002084F824002000FFF7B6F8A4
:10265000200000F037F9A16AC90676D40100C9B29A
:10266000002972D1A16A31F4885151F00201A162AE
:102670006268E1690A43217B52EA41021643A1687C
:10268000B1F5807F02D0A168012902D14FF4807199
:1026900000E000210D43217D012911D1217B00297A
:1026A00006D1A169491E490351F400610D4307E0B9
:1026B000A16A51F02001A162E16A51F00101E162D9
:1026C0002168496831F469412943226851602168D1
:1026D0008A68DFF8DC110A40324321688A60A16809
:1026E000B1F5807F02D0A168012902D14FF4807139
:1026F00000E00021B1F5807F03D12169491E090561
:102700000F002168C96A31F4700139432268D1622F
:1027100021688A68DFF89C110A40B24208D1002182
:10272000E162A16A31F0020151F00101A16212E0FF
:10273000A16A31F0020151F01001A162E16A51F089
:102740000101E1620121080005E0A16A51F01001D8
:10275000A16201210800C0B2BDE8F08178B4020096
:1027600000230020009092F82400012801D10220CB
:102770009BE0012082F824004868072812D21068E4
:10278000446B1F254868461E05204643B540AC43B0
:102790000D684868461E05204643B5402C43106826
:1027A000446329E048680D2812D21068046B1F2585
:1027B0004868C61F05204643B540AC430D684868CD
:1027C000C61F05204643B5402C431068046313E040
:1027D0001068C46A1F254868B0F10D0605204643FD
:1027E000B540AC430D684868B0F10D06052046437E
:1027F000B5402C431068C46208680A2814D31068D6
:10280000C46807250868B0F10A0603204643B540AE
:10281000AC438D680868B0F10A0603204643B54012
:102820002C431068C4600FE01068046907250E6827
:1028300003204643B540AC438D680E6803204643F1
:10284000B5402C43106804610868102802D008685D
:10285000112825D11068184CA0421BD1106880683F
:1028600000021DD41068806850F400001468A06055
:102870000868102814D111480068114CB0FBF4F41A
:102880000A20444300940098002809D00098401E74
:102890000090F8E7906A50F0200090620120030059
:1028A000002082F824001800C0B272BC70470000FB
:1028B000FDF7E1FFFE0E1FFF002401406C01002028
:1028C00040420F0038B50400002520688068C0072A
:1028D0001FD5206880684008400021688860FDF7A7
:1028E00035FF050020688068C00712D5FDF72EFF70
:1028F000401B0328F6D320688068C007F2D5A06A81
:1029000050F01000A062E06A50F00100E062012087
:1029100000E0002032BD000070B50400002C01D1A1
:102920000120E1E094F83D00002805D1002084F862
:102930003C002000FEF7B4FF242084F83D0020680E
:10294000006840084000216808602068006850F472
:102950000040216808602068006830F40040216869
:102960000860FDF7A5FE0100DFF880016268824281
:1029700008D2DFF87C21914201D2012200E000223E
:10298000D2B207E0DFF86C21914201D2012200E0CF
:102990000022D2B2012A01D10120A5E0DFF858219E
:1029A000B1FBF2F223685B689B099B011343256826
:1029B0006B6023681B6A6568854201D2551C08E07C
:1029C0004FF4967505FB02F54FF47A76B5FBF6F5F4
:1029D0006D1C9B099B012B4325682B622368DB69D7
:1029E0006568854214D2481E65686D00B0FBF5F03D
:1029F000401C0005000D042801D204253EE0481EBD
:102A000065686D00B0FBF5F56D1C2D052D0D35E0ED
:102A1000A068002809D14D1E666803204643B5FB17
:102A2000F6F0401C0005000D0AE04D1E66681920F6
:102A30004643B5FBF6F0401C0005000D50F4804005
:102A4000000501D1012519E0A068002809D14D1E1B
:102A5000666803204643B5FBF6F56D1C2D052D0D6C
:102A60000AE04D1E666819204643B5FBF6F56D1C5D
:102A70002D052D0D55F4804555F40045DFF87C00FB
:102A800003402B432068C3612068036833F0C00310
:102A9000E0690343206A0343206803602068836879
:102AA000DFF85C00034020690343E06803432068CB
:102AB00083602068C3681B0A1B02A569606905431F
:102AC0002B432068C3602068006850F00100236831
:102AD000186000202064202084F83D00002020633E
:102AE000002084F83E00002070BD0000A186010097
:102AF00080841E0000093D0040420F000030FFFFAF
:102B0000007CFFFFBBBBE1B1B2F5803F80F07E806F
:102B1000022A1ED98C46B1FBF2F102FB11C31B0441
:102B200043EA1043B3FBF2FC02FB1C3380B240EAE1
:102B30000343B3FBF2F002FB103240EA0C400023E7
:102B40007047022A05D98446B0FBF2F002FB10C29E
:102B500070474AB105D100F0010249085FEA300030
:102B6000704700220023704700F0E4B80B00020019
:102B7000002100207047904271EB030CF6D3B3F5AF
:102B8000803F2FD2F0B5B3FA83F7B1FA81F4A7F101
:102B90000F0E3D1B5340CEF1200602FA0EF2F34118
:102BA0005340B5F10F0746D80F3C2C444140C4F1C7
:102BB0002006A040F1414140B1FBF3F603FB1611A2
:102BC000A2FB0645001BA94102D2761E801859417E
:102BD00080EA010221FA0EF362FA0EF200215A4055
:102BE0003046F0BD30B4B1FBF3FC03FB1C11A2FB7B
:102BF0000C45001BA94103D2ACF1010C80185941CE
:102C000030BC02460B46604600217047B2F1807F1F
:102C100065D3F0B5B2FA82F7B1FA81F4C7F10F06C5
:102C20003D1B22FA06F307F1110EF24120355A40FE
:102C3000B5F10F07B8D94140C4F12006A040F141D9
:102C40004140B1FBF3FC03FB1C11A2FB0C45001B34
:102C5000A94103D2BCF1010C801859410F2F12D3A6
:102C60000F3FC90341EA5041B1FBF3F603FB1611D4
:102C7000A2FB0645D4EBC030A94102D2761E8018D3
:102C8000594146EACC3C07B34140C7F12006B84061
:102C9000F1414140B1FBF3F603FB1611A2FB0645DF
:102CA000001BA94102D2761E8018594180EA010218
:102CB00021FA0EF3C7F1200462FA0EF20CFA07F0C3
:102CC0005A402CFA04F13043F0BD80EA010221FAA7
:102CD0000EF3002162FA0EF260465A40F0BD8C46B7
:102CE000B1FBF2F102FB11C31B0243EA1063B3FB19
:102CF000F2FC02FB1C331B024CEA002043EA106387
:102D0000B3FBF2FC02FB1C331B024CEA002043EA3B
:102D10001063B3FBF2FC02FB1C331B024CEA0020E5
:102D200043EA1063B3FBF2FC02FB1C324CEA0020C6
:102D300000237047704730B50168846842184168C5
:102D400002EB5103C90703D54C4401E0491C05D1EE
:102D50009A420AD012F9011B12F8015B002904F80B
:102D6000015BF3D4491EF7D5F2E70C3030BD00000B
:102D7000FEE7FEE7FEE7FEE7FEE7704770477047B5
:102D800080B500F009F801BD80B50248FDF773FE7B
:102D900001BD00002002002003490A6803480078B2
:102DA00082180A60704700BFC8020020700100202E
:102DB00010B5074979441831064C7C44163404E0B8
:102DC0000A68081D114488470146A142F8D110BD88
:102DD000080000002400000053DAFFFF5C0100003F
:102DE00074010020000000004FFFFFFF42010000BF
:102DF000B60200000000002000F00DF8002801D00D
:102E0000FFF7D6FFAFF300800020AFF30080FEF79E
:102E1000BBF900F002F80120704700F001B8000093
:102E20000746384600F002F8FBE7000080B5AFF334
:102E30000080024A11001820ABBEFBE7260002000A
:102E400002030405060708090A0B0C0D0E0F1010EB
:102E5000000000000000000001020304060708094A
:102E600001488047014800472D2F0008712E0008B7
:102E7000AFF30080AFF30080FFF7BEFF000000005B
:102E800001020304FFF7FEBFFFF7FEBFFFF7FEBF1F
:102E9000FFF7FEBFFFF7FEBFFFF7FEBFFFF7FEBF66
:102EA000FFF7FEBFFFF7FEBFFFF7FEBFFFF7FEBF56
:102EB000FFF7FEBFFFF7FEBFFFF7FEBFFFF7FEBF46
:102EC000FFF7FEBFFFF7FEBFFFF7FEBFFFF7FEBF36
:102ED000FFF7FEBFFFF7FEBFFFF7FEBFFFF7FEBF26
:102EE000FFF7FEBFFFF7FEBFFFF7FEBFFFF7FEBF16
:102EF000FFF7FEBFFFF7FEBFFFF7FEBFFFF7FEBF06
:102F0000FFF7FEBFFFF7FEBFFFF7FEBFFFF7FEBFF5
:102F1000FFF7FEBFFFF7FEBFFFF7FEBFFFF7FEBFE5
:102F2000FFF7FEBFFFF7FEBFFFF7FEBF70470010C1
:102F3000FB0009FF000001010700010106FD017E01
:102F400003010107006C06FF008007FF000008FF77
:102F50000000090107040907040F090F00090A0FFF
:102F600000010B01050B0B1F00010C0705000C03F2
:102F700003000C0300000DFF00800EFF00000FFF98
:102F8000000010FF000011010700110106001101EF
:102F900005001101040011010300110102001101DB
:102FA00001001101000012010700120106001201C8
:102FB0000500120104001201030012010200127E3A
:102FC0000101001201000013FF000014FF000015B2
:102FD000FF000016FF000017FF000018070501188A
:102FE0000104001801030018010200180101001873
:102FF00001000019FF00001AFF00001BFF00001C69
:103000000107001C0106001C3F00071D0F04011DE5
:103010000701001D0100071E0F04001E0103001E12
:103020000102001E0300641FFF000020FF000821B2
:10303000FF000122FF00FF23FF000024FF000041EA
:1030400025FF0000260103002601021239FF0000BF
:103050004003060040030400400302004003000058
:1030600041FF001242FF00004B0104844D7F00002D
:103070005BFF0013613F000E62FF005B63FF00DB3C
:0930800064FFE6000324F40001E2
:0400000508002E7150
:00000001FF
